:020000040800F2
:1000000000500020110E0008790200087B02000851
:100010007D0200087F020008810200080000000045
:100020000000000000000000000000008302000843
:10003000850200080000000087020008890200080D
:10004000590E0008590E0008590E0008590E0008F4
:10005000590E0008590E0008590E0008590E0008E4
:10006000590E0008590E0008590E0008590E0008D4
:10007000590E0008590E0008590E0008590E0008C4
:10008000590E0008590E0008590E0008590E0008B4
:10009000590E0008590E0008590E0008590E0008A4
:1000A000590E0008590E0008590E0008590E000894
:1000B000590E0008590E0008590E0008590E000884
:1000C000590E0008590E0008590E0008590E000874
:1000D000590E0008590E0008590E0008590E000864
:1000E000590E0008590E0008590E000800000000C3
:1000F0000000000000000000000000000000000000
:0C01000000000000000000005FF808F1A3
:10010C000348044B834202D0034B03B1184770479A
:10011C000C0000200C000020000000000548064BDD
:10012C001B1AD90F01EBA301491002D0034B03B1E9
:10013C00184770470C0000200C0000200000000045
:10014C0010B5064C237843B9FFF7DAFF044B13B113
:10015C000448AFF300800123237010BD0C00002075
:10016C0000000000B40E000808B5054B1BB1054992
:10017C000548AFF30080BDE80840FFF7CFBF00BFD4
:10018C000000000010000020B40E000882B00A4BE2
:10019C009A6942F020029A619A6902F02002009258
:1001AC00009A9A6942F004029A619B6903F0040375
:1001BC000193019B02B070470010024072B6FEE73B
:1001CC0008B50A480A4B03604FF4E133436000233F
:1001DC008360C36003610C2242618361C36100F0E0
:1001EC00F9F800B908BDFFF7E9FF00BF28000020AF
:1001FC000038014000B591B02822002106A800F07B
:10020C0026FE00230193029303930493059301228A
:10021C0006924FF4803307930A9202220D920E93AA
:10022C004FF4E0130F9306A800F064F980B90F2384
:10023C00019302210291002303934FF480620492F4
:10024C00059301A800F088FB20B911B05DF804FB00
:10025C00FFF7B4FFFFF7B2FF08B500F011F9FFF795
:10026C00C9FFFFF793FFFFF7ABFFFEE7FEE7FEE7E3
:10027C00FEE7FEE7FEE770477047704708B500F0F1
:10028C0011F908BD82B00E4B9A6942F001029A61D5
:10029C009A6902F001020092009ADA6942F08052E7
:1002AC00DA61DB6903F080530193019B054A5368C3
:1002BC0023F0E06343F00073536002B0704700BF5B
:1002CC00001002400000014010B586B000230293DC
:1002DC000393049305930268174B9A4201D006B01E
:1002EC0010BD03F558439A6942F480429A619A69A9
:1002FC0002F480420092009A9A6942F004029A61D8
:10030C009B6903F004030193019B4FF40073029368
:10031C000223039303230593084C02A9204600F003
:10032C00F7FB4FF48063029300230393049302A919
:10033C00204600F0EDFBD2E70038014000080140F8
:10034C0010B504460268136923F44053C1680B438B
:10035C00136183680269134342691A430168CB68CD
:10036C0023F4B05323F00C031343CB60026853699E
:10037C0023F4407381690B4353610268134B9A4217
:10038C0020D000F0A5FB024602EB820202EB8202B7
:10039C0063689B00B2FBF3F20D48A0FB02314909E4
:1003AC00642303FB11231B013233A0FB03035B0902
:1003BC0003F0F00202EB011203F00F032168134467
:1003CC008B6010BD00F094FB0246DDE70038014065
:1003DC001F85EB5160B310B5044690F8413013B350
:1003EC00242384F841302268D36823F40053D3606B
:1003FC002046FFF7A5FF2268136923F4904313618D
:10040C002268536923F02A0353612268D36843F4AA
:10041C000053D36000206064202384F8413084F8BA
:10042C004230606310BD80F84030FFF74DFFD7E7D6
:10043C000120704710B504460E4B1A784FF47A73AE
:10044C00B3FBF2F30C4A1068B0FBF3F000F0C4FC01
:10045C0068B90F2C01D901200AE0002221464FF087
:10046C00FF3000F0A9FC054B1C60002000E00120CF
:10047C0010BD00BF00000020080000200400002078
:10048C0008B5074A136843F010031360032000F00B
:10049C0081FC0F20FFF7CEFFFFF7F4FE002008BD14
:1004AC0000200240034A1168034B1B780B44136075
:1004BC00704700BF7000002000000020014B18683E
:1004CC00704700BF7000002082B0084B1B68084AC0
:1004DC00A2FB03235B0A00FB03F3019300BF019B08
:1004EC005A1E0192002BF9D102B07047080000206F
:1004FC00D34D6210002800F0F18170B582B0044633
:10050C00036813F0010F2CD0994B5B6803F00C03BC
:10051C00042B1DD0964B5B6803F00C03082B12D0F8
:10052C006368B3F5803F41D0002B55D103F1804374
:10053C0003F504331A6822F480321A601A6822F424
:10054C0080221A6037E08A4B5B6813F4803FE7D057
:10055C00874B1B6813F4003F03D06368002B00F03B
:10056C00BF81236813F0020F75D0814B5B6813F0C9
:10057C000C0F5FD07E4B5B6803F00C03082B54D040
:10058C002369002B00F08A807A4B01221A60FFF756
:10059C0095FF0546764B1B6813F0020F75D1FFF7DC
:1005AC008DFF401B0228F5D903209EE1704A136889
:1005BC0043F480331360636843B3FFF77FFF054652
:1005CC006B4B1B6813F4003FCBD1FFF777FF401B3D
:1005DC006428F5D9032088E1B3F5A02F09D0644B2A
:1005EC001A6822F480321A601A6822F480221A6087
:1005FC00E1E703F18043A3F53C331A6842F480220F
:10060C001A601A6842F480321A60D4E7FFF756FF7A
:10061C000546574B1B6813F4003FA2D0FFF74EFF63
:10062C00401B6428F5D903205FE1514B5B6813F440
:10063C00803FA5D14E4B1B6813F0020F03D02369EA
:10064C00012B40F04F814A4A136823F0F80361698B
:10065C0043EAC1031360236813F0080F33D0A36976
:10066C00002B5CD0434B0122C3F88024FFF726FFFC
:10067C0005463F4B5B6A13F0020F21D1FFF71EFFBB
:10068C00401B0228F5D903202FE1394A136823F0C7
:10069C00F803616943EAC1031360DCE7354B0022C0
:1006AC001A60FFF70BFF0546314B1B6813F0020F66
:1006BC00D1D0FFF703FF401B0228F5D9032014E12A
:1006CC000120FFF701FF236813F0040F00F0968060
:1006DC00274BDB6913F0805F34D1254BDA6942F08C
:1006EC008052DA61DB6903F080530193019B012591
:1006FC00214B1B6813F4807F26D0E368012B3DD07F
:10070C00002B53D103F1804303F504331A6A22F012
:10071C0001021A621A6A22F004021A6233E0154BC3
:10072C000022C3F88024FFF7C9FE0546104B5B6A14
:10073C0013F0020FC7D0FFF7C1FE401B0228F5D9FA
:10074C000320D2E00025D3E70B4A136843F48073EF
:10075C001360FFF7B3FE0646074B1B6813F4807F4C
:10076C00CBD1FFF7ABFE801B6428F5D90320BCE08E
:10077C000010024000004242007000405F4A136AC1
:10078C0043F001031362E36833B3FFF797FE0646A9
:10079C005A4B1B6A13F0020F2FD1FFF78FFE801BF1
:1007AC0041F288339842F3D903209EE0052B09D0FF
:1007BC00524B1A6A22F001021A621A6A22F00402DF
:1007CC001A62E0E74D4B1A6A42F004021A621A6A86
:1007DC0042F001021A62D6E7FFF770FE0646474B5D
:1007EC001B6A13F0020F08D0FFF768FE801B41F262
:1007FC0088339842F3D9032077E0E5B9E369002BFD
:10080C0072D03E4A526802F00C02082A56D0022BD3
:10081C0017D03B4B00221A66FFF750FE0446374BAD
:10082C001B6813F0007F47D0FFF748FE001B02281F
:10083C00F5D9032059E0314AD36923F08053D361B1
:10084C00DCE72F4B00221A66FFF738FE05462B4BD0
:10085C001B6813F0007F06D0FFF730FE401B022808
:10086C00F5D9032041E0236AB3F5803F1AD0234920
:10087C004B6823F47413226A606A024313434B607F
:10088C001F4B01221A66FFF719FE04461B4B1B680F
:10089C0013F0007F0ED1FFF711FE001B0228F5D9D3
:1008AC00032022E0154A536823F40033A1680B435C
:1008BC005360DCE7002018E0002016E0012B16D076
:1008CC000E4B5B6803F48031226A914211D103F420
:1008DC007013626A93420ED1002006E0012070472B
:1008EC00012002E0012000E0002002B070BD0120D8
:1008FC00FBE70120F9E70120F7E700BF00100240F9
:10090C00000042420F4B5B6803F00C02082A01D036
:10091C000D487047C3F383420C49885C13F4803F45
:10092C000BD0084B5B68C3F34043094AD35C064ABF
:10093C0002FB00F0B0FBF3F07047064B03FB00F03A
:10094C00704700BF0010024000127A00D00E000861
:10095C00CC0E000800093D00002800F0A08070B506
:10096C000D460446524B1B6803F007038B420BD217
:10097C004F4A136823F007030B431360136803F00B
:10098C0007038B4240F08D80236813F0020F17D0C1
:10099C0013F0040F04D0474A536843F4E0635360E8
:1009AC00236813F0080F04D0424A536843F4605391
:1009BC005360404A536823F0F003A1680B43536023
:1009CC00236813F0010F31D06368012B20D0022B68
:1009DC0025D0384A126812F0020F64D035494A68A3
:1009EC0022F0030213434B60FFF768FD0646314BC0
:1009FC005B6803F00C036268B3EB820F16D0FFF751
:100A0C005DFD801B41F288339842F0D9032045E00C
:100A1C00284A126812F4003FE0D101203EE0254A3A
:100A2C00126812F0007FD9D1012037E0204B1B68EF
:100A3C0003F00703AB420AD91D4A136823F00703DE
:100A4C002B431360136803F00703AB422DD12368CB
:100A5C0013F0040F06D0174A536823F4E063E168DF
:100A6C000B435360236813F0080F07D0114A5368E7
:100A7C0023F46053216943EAC1035360FFF742FF3B
:100A8C000C4B5B68C3F303130B4AD35CD8400B4B82
:100A9C0018600B4B1868FFF7CDFC002070BD0120CF
:100AAC0070470120FAE70120F8E70120F6E700BFC4
:100ABC000020024000100240E80E00080800002050
:100ACC0004000020014B1868704700BF080000208C
:100ADC0008B5FFF7F7FF044B5B68C3F30223034A27
:100AEC00D35CD84008BD00BF00100240E00E0008E7
:100AFC0008B5FFF7E7FF044B5B68C3F3C223034A57
:100B0C00D35CD84008BD00BF00100240E00E0008C6
:100B1C0070B582B00024A446A2E07E4DAB4210D04A
:100B2C0007D97D4DAB420CD005F58035AB4208D0D2
:100B3C0013E0A5F58015AB4203D005F57025AB424B
:100B4C0007D18B68002B55D0012B4ED04261082465
:100B5C0003E0A5F58015AB42F3D0BEF1FF0F4BD8E7
:100B6C0006464FEA8C0233680F25954023EA0503AD
:100B7C0004FA02F2134333604B6813F0805F6DD0BC
:100B8C00664B9A6942F001029A619B6903F001037A
:100B9C000193019B4FEA9C02951C614B53F8256015
:100BAC000CF00305AD000F23AB4026EA03065D4BAA
:100BBC00984228D003F58063984200F08D8003F5AD
:100BCC008063984200F08A8003F58063984218D0C5
:100BDC00042319E0CC68C0E7CC680434BDE7CC68CA
:100BEC000834BAE7CC680C34B7E702610824B4E7E0
:100BFC000024B2E70424B0E7061DACF10802920011
:100C0C00B1E7032300E00023AB4033430232444DF1
:100C1C0045F822304B6813F4801F61D0424A936828
:100C2C0043EA0E0393604B6813F4001F5ED03E4AF8
:100C3C00D36843EA0E03D3604B6813F4003F5BD0D8
:100C4C00394A536843EA0E0353604B6813F4803FF0
:100C5C0058D0354A136843EA0E0313600CF1010CAB
:100C6C000B6833FA0CF253D0012202FA0CF203EAAD
:100C7C00020E32EA0303F1D14B68122B3FF64DAF53
:100C8C00122B3FF66AAF01A555F823F04F0B000865
:100C9C00E10B0008EB0B0008FD0B0008670B0008CC
:100CAC00670B0008670B0008670B0008670B000850
:100CBC00670B0008670B0008670B0008670B000840
:100CCC00670B0008670B0008670B0008670B000830
:100CDC00E50B0008F10B0008012395E7022393E7CD
:100CEC00114A936823EA0E0393609CE70E4AD3687B
:100CFC0023EA0E03D3609FE70B4A536823EA0E03E3
:100D0C005360A2E7084A136823EA0E031360A5E7B1
:100D1C0002B070BD00002210000031100010024023
:100D2C00000001400008014000040140002808DBDD
:100D3C000901C9B200F1604000F5614080F8001370
:100D4C00704700F00F000901C9B2014B19547047EC
:100D5C0014ED00E000B500F00700C0F1070CBCF189
:100D6C00040F28BF4FF0040C031D062B0FD9C31E14
:100D7C004FF0FF3E0EFA0CF021EA000199400EFAFA
:100D8C0003FE22EA0E0241EA02005DF804FB002396
:100D9C00EEE70000074AD36823F4E0631B041B0C46
:100DAC00000200F4E060034343F0BF6343F40033FC
:100DBC00D360704700ED00E010B50446054BD868D1
:100DCC00C0F30220FFF7C6FF01462046FFF7AEFF37
:100DDC0010BD00BF00ED00E00138B0F1807F0BD2F8
:100DEC004FF0E0235861054AF02182F823100020CF
:100DFC00986107221A6170470120704700ED00E0EE
:100E0C0070470000FFF7FCFF0B480C490C4A00230D
:100E1C0002E0D458C4500433C4188C42F9D3094AA4
:100E2C00094C002301E013600432A242FBD300F012
:100E3C0017F8FFF711FA7047000000200C00002093
:100E4C00000F00080C00002074000020FEE7034691
:100E5C000244934200D1704703F8011BF9E70000EC
:100E6C0070B500260C4D0D4C641BA410A64209D184
:100E7C0000F01AF800260A4D0A4C641BA410A64276
:100E8C0005D170BD55F8043B98470136EEE755F88F
:100E9C00043B98470136F2E7F80E0008F80E0008FC
:100EAC00F80E0008FC0E0008F8B500BFF8BC08BC32
:100EBC009E467047F8B500BFF8BC08BC9E4670470C
:100ECC000102000002030405060708090A0B0C0DB9
:100EDC000E0F1010000000000102030400000000BF
:0C0EEC00000000000102030406070809D2
:040EF8007501000878
:040EFC004D0100089C
:0C0F000001000000100000000024F400BC
:0400000508000E11D0
:00000001FF
