:020000040800F2
:1000000000500020710F0008250D0008270D000882
:10001000290D00082B0D00082D0D00080000000020
:100020000000000000000000000000002F0D00088C
:10003000310D000800000000330D0008350D0008E8
:10004000B90F0008B90F0008B90F0008B90F000870
:10005000B90F0008B90F0008B90F0008B90F000860
:10006000B90F0008B90F0008B90F0008B90F000850
:10007000B90F0008B90F00083D0D00084D0D00082C
:10008000B90F0008B90F0008B90F00085D0D00088E
:100090006D0D0008B90F0008B90F0008B90F00086E
:1000A000B90F0008B90F0008B90F0008B90F000810
:1000B000B90F0008B90F0008B90F0008B90F000800
:1000C000B90F0008B90F0008B90F0008B90F0008F0
:1000D000B90F00087D0D0008B90F0008B90F00081E
:1000E000B90F0008B90F0008B90F000800000000A0
:1000F0000000000000000000000000000000000000
:0C01000000000000000000005FF808F1A3
:10011000844641EA000313F0030349D1403A23D354
:100120000B6803604B6843608B688360CB68C36077
:100130000B6903614B6943618B698361CB69C3615F
:100140000B6A03624B6A43628B6A8362CB6AC36247
:100150000B6B03634B6B43638B6B8363CB6BC3632F
:1001600040304031403ADBD230320BD30B68036071
:100170004B6843608B688360CB68C360103010317C
:10018000103AF3D20C3205D351F8043B40F8043B4B
:10019000043AF9D2043208D0D2071CBF11F8013B4F
:1001A00000F8013B01D30B8803806046704700BF15
:1001B000082A13D38B07B1D010F00303AED0C3F1DC
:1001C0000403D21ADB071CBF11F8013B00F8013B06
:1001D000A4D331F8023B20F8023B9FE7043AD9D37D
:1001E000013A11F8013B00F8013BF9D20B7803709A
:1001F0004B7843708B7883706046704781F0004184
:1002000002E000BF83F0004330B54FEA41044FEAFB
:10021000430594EA050F08BF90EA020F1FBF54EA96
:10022000000C55EA020C7FEA645C7FEA655C00F032
:10023000E2804FEA5454D4EB5555B8BF6D420CDD03
:100240002C4480EA020281EA030382EA000083EA86
:10025000010180EA020281EA0303362D88BF30BD26
:1002600011F0004F4FEA01314FF4801C4CEA11317C
:1002700002D0404261EB410113F0004F4FEA0333DB
:100280004CEA133302D0524263EB430394EA050F66
:1002900000F0A780A4F10104D5F1200E0DDB02FAD5
:1002A0000EFC22FA05F2801841F1000103FA0EF269
:1002B000801843FA05F359410EE0A5F120050EF12F
:1002C000200E012A03FA0EFC28BF4CF0020C43FA60
:1002D00005F3C01851EBE37101F0004507D54FF06D
:1002E000000EDCF1000C7EEB00006EEB0101B1F5BD
:1002F000801F1BD3B1F5001F0CD349085FEA300003
:100300004FEA3C0C04F101044FEA445212F5800F0D
:1003100080F09A80BCF1004F08BF5FEA500C50F1AA
:10032000000041EB045141EA050130BD5FEA4C0C8D
:10033000404141EB0101013C28BFB1F5801FE9D2EA
:1003400091F0000F04BF01460020B1FA81F308BF0D
:100350002033A3F10B03B3F120020CDA0C3208DDD9
:1003600002F1140CC2F10C0201FA0CF021FA02F1B4
:100370000CE002F11402D8BFC2F1200C01FA02F124
:1003800020FA0CFCDCBF41EA0C019040E41AA2BF49
:1003900001EB0451294330BD6FEA04041F3C1CDA11
:1003A0000C340EDC04F11404C4F1200220FA04F031
:1003B00001FA02F340EA030021FA04F345EA0301DB
:1003C00030BDC4F10C04C4F1200220FA02F001FA9D
:1003D00004F340EA0300294630BD21FA04F029461F
:1003E00030BD94F0000F83F4801306BF81F48011B8
:1003F0000134013D4EE77FEA645C18BF7FEA655C2B
:1004000029D094EA050F08BF90EA020F05D054EAFC
:10041000000C04BF1946104630BD91EA030F1EBF01
:100420000021002030BD5FEA545C05D14000494105
:1004300028BF41F0004130BD14F580043CBF01F5F8
:10044000801130BD01F0004545F0FE4141F47001DE
:100450004FF0000030BD7FEA645C1ABF19461046B9
:100460007FEA655C1CBF0B46024650EA013406BFBA
:1004700052EA033591EA030F41F4002130BD00BF79
:1004800090F0000F04BF0021704730B54FF4806436
:1004900004F132044FF000054FF0000150E700BFB7
:1004A00090F0000F04BF0021704730B54FF4806416
:1004B00004F1320410F0004548BF40424FF0000103
:1004C0003EE700BF42004FEAE2014FEA31014FEA46
:1004D00002701FBF12F07F4393F07F4F81F0605195
:1004E000704732F07F4208BF704793F07F4F04BFE0
:1004F00041F40021704730B54FF4607401F00045BD
:1005000021F000411CE700BF50EA010208BF70471C
:1005100030B54FF000050AE050EA010208BF70470D
:1005200030B511F0004502D5404261EB41014FF476
:10053000806404F132045FEA915C3FF4D8AE4FF07E
:1005400003025FEADC0C18BF03325FEADC0C18BF61
:10055000033202EBDC02C2F1200300FA03FC20FAB2
:1005600002F001FA03FE40EA0E0021FA02F11444FF
:10057000BDE600BF70B54FF0FF0C4CF4E06C1CEA18
:1005800011541DBF1CEA135594EA0C0F95EA0C0F89
:1005900000F0DEF82C4481EA030621EA4C5123EAFC
:1005A0004C5350EA013518BF52EA033541F480112B
:1005B00043F4801338D0A0FB02CE4FF00005E1FBDE
:1005C00002E506F00042E0FB03E54FF00006E1FB28
:1005D00003569CF0000F18BF4EF0010EA4F1FF046B
:1005E000B6F5007F64F5407404D25FEA4E0E6D41AB
:1005F00046EB060642EAC62141EA55514FEAC520BC
:1006000040EA5E504FEACE2EB4F1FD0C88BFBCF537
:10061000E06F1ED8BEF1004F08BF5FEA500E50F1E8
:10062000000041EB045170BD06F0004646EA0101AE
:1006300040EA020081EA0301B4EB5C04C2BFD4EBE0
:100640000C0541EA045170BD41F480114FF0000ED9
:10065000013C00F3AB8014F1360FDEBF002001F047
:10066000004170BDC4F10004203C35DA0C341BDCC1
:1006700004F11404C4F1200500FA05F320FA04F093
:1006800001FA05F240EA020001F0004221F00041C7
:1006900010EBD37021FA04F642EB06015EEA430E3A
:1006A00008BF20EAD37070BDC4F10C04C4F120056A
:1006B00000FA04F320FA05F001FA04F240EA02001D
:1006C00001F0004110EBD37041F100015EEA430EEE
:1006D00008BF20EAD37070BDC4F1200500FA05F20E
:1006E0004EEA020E20FA04F301FA05F243EA02038D
:1006F00021FA04F001F0004121FA04F220EA02009C
:1007000000EBD3705EEA430E08BF20EAD37070BDE1
:1007100094F0000F0FD101F00046400041EB0101C1
:1007200011F4801F08BF013CF7D041EA060195F0A3
:10073000000F18BF704703F00046520043EB03035D
:1007400013F4801F08BF013DF7D043EA060370474A
:1007500094EA0C0F0CEA135518BF95EA0C0F0CD055
:1007600050EA410618BF52EA4306D1D181EA03019B
:1007700001F000414FF0000070BD50EA410606BF95
:100780001046194652EA430619D094EA0C0F02D1DA
:1007900050EA013613D195EA0C0F05D152EA03361F
:1007A0001CBF104619460AD181EA030101F000413D
:1007B00041F0FE4141F470014FF0000070BD41F086
:1007C000FE4141F4780170BD70B54FF0FF0C4CF460
:1007D000E06C1CEA11541DBF1CEA135594EA0C0F7F
:1007E00095EA0C0F00F0A7F8A4EB050481EA030ECC
:1007F00052EA03354FEA013100F088804FEA0333B3
:100800004FF0805545EA131343EA12634FEA022280
:1008100045EA111545EA10654FEA00260EF0004141
:100820009D4208BF964244F1FD0404F5407402D293
:100830005B084FEA3202B61A65EB03055B084FEA24
:1008400032024FF480104FF4002CB6EB020E75EB21
:10085000030E22BFB61A754640EA0C005B084FEA49
:100860003202B6EB020E75EB030E22BFB61A7546C6
:1008700040EA5C005B084FEA3202B6EB020E75EB11
:10088000030E22BFB61A754640EA9C005B084FEA89
:100890003202B6EB020E75EB030E22BFB61A754696
:1008A00040EADC0055EA060E18D04FEA051545EA85
:1008B00016754FEA06164FEAC30343EA52734FEA2E
:1008C000C2025FEA1C1CC0D111F4801F0BD141EAA7
:1008D00000014FF000004FF0004CB6E711F4801F0C
:1008E00004BF01430020B4F1FD0C88BFBCF5E06FEC
:1008F0003FF6AFAEB5EB030C04BFB6EB020C5FEAFC
:10090000500C50F1000041EB045170BD0EF0004E50
:100910004EEA113114EB5C04C2BFD4EB0C0541EA82
:10092000045170BD41F480114FF0000E013C90E67F
:1009300045EA060E8DE60CEA135594EA0C0F08BF43
:1009400095EA0C0F3FF43BAF94EA0C0F0AD150EA42
:1009500001347FF434AF95EA0C0F7FF425AF1046D5
:1009600019462CE795EA0C0F06D152EA03353FF4FD
:10097000FDAE1046194622E750EA410618BF52EA7A
:1009800043067FF4C5AE50EA41047FF40DAF52EA4E
:1009900043057FF4EBAE12E74FF0FF3C06E000BFEB
:1009A0004FF0010C02E000BF4FF0010C4DF804CDF8
:1009B0004FEA410C7FEA6C5C4FEA430C18BF7FEAB8
:1009C0006C5C1BD001B050EA410C0CBF52EA430CE6
:1009D00091EA030F02BF90EA020F0020704710F166
:1009E000000F91EA030F58BF994208BF90422CBFF5
:1009F000D8176FEAE37040F0010070474FEA410CEE
:100A00007FEA6C5C02D150EA013C07D14FEA430C0B
:100A10007FEA6C5CD6D152EA033CD3D05DF8040B7C
:100A2000704700BF8446104662468C4619466346AE
:100A300000E000BF01B5FFF7B7FF002848BF10F185
:100A4000000F01BD4DF808EDFFF7F4FF0CBF0120CA
:100A500000205DF808FB00BF4DF808EDFFF7EAFF46
:100A600034BF012000205DF808FB00BF4DF808ED01
:100A7000FFF7E0FF94BF012000205DF808FB00BFF6
:100A80004DF808EDFFF7CEFF94BF012000205DF880
:100A900008FB00BF4DF808EDFFF7C4FF34BF01208D
:100AA00000205DF808FB00BF4FEA410C7FEA6C5C58
:100AB00002D150EA013C0AD14FEA430C7FEA6C5C58
:100AC00002D152EA033C02D14FF0000070474FF0D0
:100AD000010070474FEA410212F5001215D211D5FC
:100AE0006FF47873B3EB625212D94FEAC12343F02B
:100AF000004343EA505311F0004F23FA02F018BFAD
:100B0000404270474FF00000704750EA013005D175
:100B100011F0004008BF6FF0004070474FF0000038
:100B2000704700BF0348044B834202D0034B03B11C
:100B300018477047B8070020B807002000000000E1
:100B40000548064B1B1AD90F01EBA301491002D02F
:100B5000034B03B118477047B8070020B8070020BF
:100B60000000000010B5064C237843B9FFF7DAFF08
:100B7000044B13B10448AFF300800123237010BD70
:100B8000B807002000000000B8BE000808B5054BFB
:100B90001BB105490548AFF30080BDE80840FFF7E9
:100BA000CFBF00BF00000000BC070020B8BE000897
:100BB00000B583B00E4B5A6942F001025A615B697D
:100BC00003F001030193019B002211460E2000F067
:100BD00099FA0E2000F0A6FA002211460F2000F02C
:100BE00091FA0F2000F09EFA03B05DF804FB00BFFD
:100BF0000010024084B00F4B9A6942F010029A61D3
:100C00009A6902F010020192019A9A6942F0200258
:100C10009A619A6902F020020292029A9A6942F05D
:100C200004029A619B6903F004030393039B04B0DD
:100C3000704700BF0010024072B6FEE700B595B0E5
:100C4000282200210DEB020005F064FB0023059330
:100C500006930793089309930193029303930493D4
:100C600001220A924FF480330B930E9202221192CA
:100C700012934FF4E01313930AA801F04BFDC0B98F
:100C80000F23059302210691002307934FF48062FE
:100C90000892099305A801F06FFF60B91023019332
:100CA0000023049301A802F043F830B915B05DF8B1
:100CB00004FBFFF7C1FFFFF7BFFFFFF7BDFF08B55C
:100CC00000F0A2F9FFF7BAFFFFF794FFFFF770FFFC
:100CD00000F0BCF804F004FC04F006FEFEE700009F
:100CE00082B00E4B9A6942F001029A619A6902F051
:100CF00001020092009ADA6942F08052DA61DB69FF
:100D000003F080530193019B054A536823F0E0638D
:100D100043F00073536002B0704700BF0010024000
:100D200000000140FEE7FEE7FEE7FEE7FEE7704752
:100D30007047704708B500F079F908BD08B502485A
:100D400000F008FB08BD00BF1C08002008B50248E1
:100D500000F000FB08BD00BFD807002008B502481E
:100D600001F0D9FA08BD00BF9012002008B5024872
:100D700001F0D1FA08BD00BF9012002008B502486A
:100D800002F018FB08BD00BF60080020012070477A
:100D900008B505F075FB162303604FF0FF3008BD62
:100DA00008B54FF0FF31FFF7F3FFFEE770B50C46D3
:100DB0001646002506E0AFF30080214601F8010B3E
:100DC00001350C46B542F6DB304670BD70B50C46B9
:100DD0001646002504E014F8010BAFF3008001353E
:100DE000B542F8DB304670BD4FF0FF3070474FF42E
:100DF00000534B600020704701207047002070476F
:100E000010B503460C4A0D490D48006840B10C4826
:100E100000680344521A934206D8094A136010BD71
:100E20000748084C0460F2E705F02AFB0C23036036
:100E30004FF0FF30F3E700BF005000200004000037
:100E4000D4070020581900207047000008B50A4850
:100E50000A4B03604FF4E133436000238360C360B7
:100E600003610C2242618361C36102F0E7F800B9BB
:100E700008BDFFF7E1FEFBE76008002000380140F5
:100E800070B586B000230293039304930593026820
:100E9000314B9A4201D006B070BD044603F5584369
:100EA0009A6942F480429A619A6902F480420092FF
:100EB000009A9A6942F004029A619B6903F0040364
:100EC0000193019B4FF400730293022303930323C6
:100ED0000593224E02A9304600F002FB4FF48063D6
:100EE000029300250395049502A9304600F0F8FA14
:100EF0001B481C4B03601023436085608023C36044
:100F0000056145618561C56100F044F9E8B9144B9C
:100F1000A3635C621448154B036000234360836045
:100F20008022C260036143618361C36100F032F9D2
:100F300070B90D4BE3635C6200221146252000F07E
:100F4000E1F8252000F0EEF8A5E7FFF775FEDEE7F3
:100F5000FFF772FEEDE700BF0038014000080140D6
:100F60001C08002044000240D8070020580002401E
:100F7000FFF76AFF0B480C490C4A002302E0D458E3
:100F8000C4500433C4188C42F9D3094A094C0023D5
:100F900001E013600432A242FBD305F077FAFFF7B9
:100FA0008EFE704700000020B807002010C4000823
:100FB000B807002054190020FEE7000010B50446D1
:100FC0000E4B1A784FF47A73B3FBF2F30C4A1068A5
:100FD000B0FBF3F000F0B4F868B90F2C01D9012090
:100FE0000AE0002221464FF0FF3000F08BF8054B5D
:100FF0001C60002000E0012010BD00BF04000020A4
:10100000000000200800002008B5074A136843F0DC
:1010100010031360032000F063F80F20FFF7CEFFEA
:10102000FFF75EFE002008BD00200240034A116861
:10103000034B1B780B441360704700BFA8080020C7
:1010400004000020014B1868704700BFA80800206A
:1010500038B50446FFF7F6FF0546B4F1FF3F02D06E
:10106000044B1B781C44FFF7EDFF401BA042FAD352
:1010700038BD00BF04000020002808DB0901C9B208
:1010800000F1604000F5614080F80013704700F007
:101090000F000901C9B2014B1954704714ED00E06B
:1010A00000B500F00700C0F1070CBCF1040F28BF29
:1010B0004FF0040C031D062B0FD9C31E4FF0FF3E4B
:1010C0000EFA0CF021EA000199400EFA03FE22EA22
:1010D0000E0241EA02005DF804FB0023EEE7000087
:1010E000074AD36823F4E0631B041B0C000200F4DE
:1010F000E060034343F0BF6343F40033D3607047C1
:1011000000ED00E010B50446054BD868C0F302209E
:10111000FFF7C6FF01462046FFF7AEFF10BD00BF38
:1011200000ED00E0002807DB00F01F02400901236A
:101130009340024A42F82030704700BF00E100E0CF
:101140000138B0F1807F0BD24FF0E0235861054A9F
:10115000F02182F823100020986107221A6170475D
:101160000120704700ED00E030B40124056CAC4074
:10117000C56B6C60046863604368102B05D003681E
:1011800099600368DA6030BC704703689A6003684E
:10119000D960F8E760B310B402460168154B0B4400
:1011A0001548A0FB03031B099B001364134BD36377
:1011B000022382F82130086820F47F5020F03000AC
:1011C000536894682343D4682343146923435469C0
:1011D000234394692343D469234303430B600020D2
:1011E0009063012382F8213082F8200010BC704700
:1011F00001207047F8FFFDBFCDCCCCCC00000240F1
:1012000038B5044690F82000012832D0012084F837
:10121000200094F82100C0B2012804D0002384F8F3
:101220002030022038BD022084F821000020A06375
:101230002568286820F0010028602046FFF794FF09
:10124000E36A5BB12268136843F00E0313602268FF
:10125000136843F0010313600020E3E7226813687A
:1012600023F0040313602268136843F00A03136039
:10127000EDE70220D6E7034690F82120D2B2022AF9
:1012800006D004228263002280F8202001207047CB
:1012900001680A6822F00E020A6001680A6822F0FA
:1012A00001020A60026CC06B012101FA02F2426085
:1012B00083F82110002083F82000704708B590F8CB
:1012C0002130DBB2022B03D004238363012008BD4D
:1012D0000268136823F00E0313600268136823F09A
:1012E000010313600368194A934214D014329342E5
:1012F0001FD0143293421ED0143293421ED01432A7
:1013000093421ED01432934202D04FF0807203E019
:101310004FF4801200E001220D4B5A60012380F847
:101320002130002380F82030436B6BB198470020B8
:10133000CDE71022F0E74FF48072EDE74FF48052D2
:10134000EAE74FF48032E7E70020C0E708000240F8
:101350000000024038B5C36B1A6804682568016C48
:1013600004238B40134235D015F0040F32D023688C
:1013700013F0200F03D1236823F0040323600368D4
:10138000434A934214D01432934218D014329342F9
:1013900017D01432934217D01432934217D014321C
:1013A000934202D04FF0806203E04FF4800200E0ED
:1013B0000422384B5A60C36A03B1984738BD4022B3
:1013C000F7E74FF48062F4E74FF48042F1E74FF41F
:1013D0008022EEE702238B4013423CD015F0020F2F
:1013E00039D0236813F0200F06D1236823F00A03B5
:1013F0002360012380F821300368254A934214D0EA
:10140000143293421CD0143293421BD014329342B4
:101410001BD0143293421BD01432934202D04FF0AF
:10142000007203E04FF4001200E00222194B5A60F0
:10143000002380F82030836A002BBFD09847BDE797
:101440002022F3E74FF40072F0E74FF40052EDE78B
:101450004FF40032EAE708238B401342AED015F078
:10146000080FABD0236823F00E032360026CC16B1E
:10147000012303FA02F24A60836380F821300023DB
:1014800080F82030036B002B98D0984796E700BF78
:1014900008000240000002400A4B1B6913F0800F55
:1014A0000BD0084B084A5A6002F188325A601B6917
:1014B00013F0800F03D100207047002070470120F7
:1014C000704700BF0020024023016745034A1369AB
:1014D00043F0800313610020704700BF00200240EA
:1014E00070B582B00024A446A2E07E4DAB4210D07D
:1014F00007D97D4DAB420CD005F58035AB4208D005
:1015000013E0A5F58015AB4203D005F57025AB427D
:1015100007D18B68002B55D0012B4ED04261082497
:1015200003E0A5F58015AB42F3D0BEF1FF0F4BD819
:1015300006464FEA8C0233680F25954023EA0503DF
:1015400004FA02F2134333604B6813F0805F6DD0EE
:10155000664B9A6942F001029A619B6903F00103AC
:101560000193019B4FEA9C02951C614B53F8256047
:101570000CF00305AD000F23AB4026EA03065D4BDC
:10158000984228D003F58063984200F08D8003F5DF
:101590008063984200F08A8003F58063984218D0F7
:1015A000042319E0CC68C0E7CC680434BDE7CC68FC
:1015B0000834BAE7CC680C34B7E702610824B4E712
:1015C0000024B2E70424B0E7061DACF10802920043
:1015D000B1E7032300E00023AB4033430232444D24
:1015E00045F822304B6813F4801F61D0424A93685B
:1015F00043EA0E0393604B6813F4001F5ED03E4A2B
:10160000D36843EA0E03D3604B6813F4003F5BD00A
:10161000394A536843EA0E0353604B6813F4803F22
:1016200058D0354A136843EA0E0313600CF1010CDD
:101630000B6833FA0CF253D0012202FA0CF203EADF
:10164000020E32EA0303F1D14B68122B3FF64DAF85
:10165000122B3FF66AAF01A555F823F013150008C9
:10166000A5150008AF150008C11500082B150008C6
:101670002B1500082B1500082B1500082B1500084A
:101680002B1500082B1500082B1500082B1500083A
:101690002B1500082B1500082B1500082B1500082A
:1016A000A9150008B5150008012395E7022393E763
:1016B000114A936823EA0E0393609CE70E4AD368AD
:1016C00023EA0E03D3609FE70B4A536823EA0E0315
:1016D0005360A2E7084A136823EA0E031360A5E7E4
:1016E00002B070BD00002210000031100010024056
:1016F00000000140000801400004014038B512F428
:10170000804F44D00468B4F850309BB291F800C0C8
:1017100003EBCC03023304EB4304B4F80044C4F3FA
:1017200009048B69A34228D31B1B8B618B697BB98E
:10173000056835F82C309BB223F4804323F0700306
:1017400083F4005343F4004343F0800325F82C3026
:1017500012F0400F0ED002680D7832F825309BB29F
:1017600023F4E04323F0700343F4004343F0C00349
:1017700022F8253024B9204638BD00238B61D5E7F7
:1017800023460A894969006802F036FEF3E70468D7
:10179000B4F850309BB291F800C003EBCC03063391
:1017A00004EB4304B4F80044C4F309048B69A34276
:1017B0002FD31B1B8B618B697BB9056835F82C30E7
:1017C0009BB223F4804323F0700383F4005343F46B
:1017D000004343F0800325F82C3012F0400F0FD166
:1017E000026891F800C032F82C309BB223F4E04339
:1017F00023F0700343F4004343F0C00322F82C307D
:10180000002CB8D023464A894969006802F0F4FDEB
:10181000B1E700238B61CEE770B586B0002800F0F9
:101820008180044690F8A932EBB1032384F8A932F1
:10183000206801F05FFF254655F8106BEC460FCD90
:10184000ACE80F002B68CCF80030231D0ECB3046DF
:1018500001F040FF054658B1022384F8A932012562
:10186000284606B070BD80F8A83203F019FFDCE707
:101870000021206801F048FF2B4616E05A1C02EBBD
:10188000820104EBC1010120487002EB820104F8DF
:10189000313004EBC1000021C17003EB830004EB85
:1018A000C0008163C1630164D3B261688B42E5D338
:1018B00016E005EB850304EBC303002283F86921DE
:1018C00083F8685183F86B21C3F87821C3F87C2131
:1018D00005EB850304EBC303C3F880210135EDB2AA
:1018E000A942E6D8254655F8106BEC460FCDACE87A
:1018F0000F002B68CCF80030231D0ECB304601F0D2
:1019000005FF054620B1022384F8A9320125A7E787
:10191000002384F82430012384F8A932206802F0DF
:1019200069F99DE701259BE738B590F8A832012BAE
:1019300011D00446012580F8A852006801F0D1FEBC
:101940002946204603F0ADFF206802F051F900203F
:1019500084F8A80238BD0220FCE790F8A832012BD9
:1019600012D010B50446012380F8A832006801F0B7
:10197000C1FE0021204603F094FF206802F03AF9EE
:10198000002084F8A80210BD0220704770B50546FB
:101990000C46164612F0400F00F00E810268B2F8B5
:1019A00050309BB2097803EBC103023302EB4302D0
:1019B000B2F80024C2F30902A36993424ED99B1ADC
:1019C000A361A369002B66D16378002B49D12B68F2
:1019D000B3F8502092B2134403EB0113B3F804247C
:1019E000C2F30902A3F80424B3F804246FEA4242C4
:1019F0006FEA524292B2A3F804242B686278002A5C
:101A00003CD1B3F8502092B21344227803EB021376
:101A1000B3F80C24C2F30902A3F80C24B3F80C2485
:101A20006FEA42426FEA524292B2A3F80C24217844
:101A3000284603F071FE16F4804F41D02A682178C1
:101A400032F821309BB223F4E04323F0700343F4D7
:101A5000404343F0800322F8213031E00023A361AA
:101A6000AFE7012BC9D12B68B3F8502092B21344D1
:101A700003EB01130022A3F80424BEE7012AD6D108
:101A8000B3F8502092B21344227803EB02130022E1
:101A9000A3F80C24CBE716F4804F0DD0286830F85B
:101AA00021309BB223F4E04323F0700343F440431E
:101AB00043F0800320F8213094F82430012B12D019
:101AC0002A68217832F821309BB223F4E04323F0D6
:101AD000400383F0300343F4004343F0800322F8D3
:101AE0002130002070BD636913446361E3691344CE
:101AF000E361216A2369994224D3C91A2162627879
:101B0000002A44D12A68B2F8501089B20A442178D8
:101B100002EB0112B2F80414C1F30901A2F8041493
:101B20003E2B1BD9580913F01F0F00D10138B2F812
:101B3000041489B2800280B2014341F40041A2F84A
:101B4000041426E021B9002384F824301346D6E794
:101B5000002384F8243023620B46D0E74BB9B2F857
:101B600004146FEA41416FEA514189B2A2F80414AA
:101B70000FE0590813F0010F00D00131B2F804044E
:101B800080B2890289B20143A2F8041401E0012A5B
:101B900006D09BB222896169286802F033F88FE78A
:101BA0002A68B2F8501089B20A44217802EB011277
:101BB00099B2A2F80414ECE70268B2F850309BB274
:101BC000097803EBC103063302EB4302B2F80024A9
:101BD000C2F30902A36993424FD39B1AA361A3697D
:101BE000002B67D16378002B4AD12B68B3F85020C3
:101BF00092B2134403EB0113B3F80424C2F30902B5
:101C0000A3F80424B3F804246FEA42426FEA524274
:101C100092B2A3F804242B686278002A3DD1B3F86D
:101C2000502092B21344227803EB0213B3F80C2431
:101C3000C2F30902A3F80C24B3F80C246FEA424261
:101C40006FEA524292B2A3F80C242178284603F09E
:101C500063FD16F4804F7FF433AF2A68217832F8A1
:101C600021309BB223F4E04323F0700343F440435C
:101C700043F0800322F8213022E70023A361AEE77E
:101C8000012BC8D12B68B3F8502092B2134403EB58
:101C900001130022A3F80424BDE7012AD5D1B3F82B
:101CA000502092B21344227803EB02130022A3F8CF
:101CB0000C24CAE716F4804F0DD1286830F8213083
:101CC0009BB223F4E04323F0700343F4404343F01A
:101CD000800320F8213094F82430012B7FF4F0AEFB
:101CE000636913446361E3691344E361216A23690F
:101CF000994224D3C91A21622A686178002943D104
:101D0000B2F8501089B20A44217802EB0112B2F8FD
:101D10000C14C1F30901A2F80C143E2B1BD958096D
:101D200013F01F0F00D10138B2F80C1489B28002F1
:101D300080B2014341F40041A2F80C1426E021B91D
:101D4000002384F824301346D6E70023236284F866
:101D500024300B46D0E74BB9B2F80C146FEA41417E
:101D60006FEA514189B2A2F80C140FE0590813F040
:101D7000010F00D00131B2F80C0480B2890289B29F
:101D80000143A2F80C1401E0012906D09BB262893C
:101D90006169286801F036FF92E6B2F8501089B206
:101DA0000A44217802EB011299B2A2F80C14EDE773
:101DB0002DE9F04105462868B0F8443013F4004F8F
:101DC00000F09282B0F84440A3B214F00F0440F047
:101DD000E28013F0100F6BD003889AB213F4006FF7
:101DE00040F09D8012F4004FE5D0038823F070038B
:101DF0001B051B0D43F0800303802868B0F85030AA
:101E00009BB295F8682103EBC203063300EB430352
:101E1000B3F80034C3F30903C5F884318BB1D5F8A6
:101E20007C1171B1B5F86E2102F0E6FAD5F87C317B
:101E3000D5F884211344C5F87C310021284603F0ED
:101E40005FFC2A68138899B213F4006FB3D101F4D0
:101E50004051B1F5405FAED0B2F850309BB21A4459
:101E6000B2F80C34C3F30903A2F80C34D5F8783176
:101E70003E2B77D9590913F01F0F00D10139B2F861
:101E80000C349BB2890289B20B4343F40043A2F89D
:101E90000C342A6813889BB223F4804323F0700328
:101EA00083F4405343F4004343F08003138082E7FC
:101EB00003889BB223F4E14323F070036FEA4343AA
:101EC0006FEA53439BB203802A68B2F850309BB24A
:101ED00095F8281003EBC103023302EB4302B2F87A
:101EE0000034C3F309036B64EA6B1A44EA6300210C
:101EF000284603F011FC95F82430002B3FF45BAF2B
:101F00002B6C002B7FF457AF95F824302A6843F0F0
:101F10008003A2F84C30002385F824304BE7B0F85A
:101F200050309BB295F8682103EBC203063300EBF7
:101F30004303B3F80034C3F30903C5F88431B5F89B
:101F40006E2105F52C7102F057FA2A68138823F0E8
:101F500070031B051B0D43F080031380284603F01C
:101F6000C7FB28E74BB9B2F80C346FEA43436FEA7A
:101F700053439BB2A2F80C348BE7590813F0010FBE
:101F800000D00131B2F80C3498B28B029BB20343FB
:101F9000A2F80C347DE730F824309EB213F4004FE1
:101FA0004CD116F0800F3FF406AF621C02EB8201A9
:101FB00005EBC101286830F824309BB223F4E143DB
:101FC00023F070036FEA43436FEA53439BB220F858
:101FD0002430CB78012B00F0F28016F4807F40F0A3
:101FE0007E812868B0F850309BB2621C02EB8202FE
:101FF00015F8326003EBC603023300EB4303B3F87A
:102000000034C3F3090304EB840205EBC202126C33
:102010009A4240F24C8104EB840705EBC707D21AC1
:102020003A6404EB840205EBC202126C002A40F011
:1020300045813146284603F06FFBBCE630F824307A
:1020400023F070031B051B0D43F0800320F82430A0
:1020500004EB8401C90001F5B47105EB010804EB40
:10206000840305EBC30393F87431002B42D1286835
:10207000B0F850309BB204EB840205EBC20292F838
:10208000682103EBC203063300EB4303B3F800748B
:10209000C7F3090717BB04EB840305EBC303D3F8AD
:1020A00084213A44C3F88421D3F87C213A44C3F80C
:1020B0007C21D3F880313BB104EB840305EBC303EF
:1020C000D3F878319F4275D204EB840305EBC30348
:1020D00093F86811284603F013FB62E704EB8401D0
:1020E00005EBC1013B46B1F86E21D1F87C1102F03D
:1020F00083F9D0E704EB840305EBC30393F86B315A
:10210000022B35D0296804EB840205EBC20292F859
:10211000680131F820309BB223F4E04323F07003D0
:1021200043F4004343F0C00321F82030286892F8BC
:10213000682130F8223013F4804F20D0B0F85030AE
:102140009BB203EBC203023300EB4303B3F800740A
:10215000C7F30907002F9ED004EB840105EBC101F2
:102160003B46B1F87021D1F87C1102F045F992E7B5
:10217000324641462846FFF7C1FA07468BE7B0F8DA
:1021800050309BB203EBC203063300EB4303B3F8BA
:102190000074C7F30907002F3FF47DAF04EB8401FF
:1021A00005EBC1013B46B1F87221D1F87C1102F078
:1021B00023F970E74146286801F037FDF1E604EBAA
:1021C000840305EBC30300221A6493F83430FBB197
:1021D00016F0400F37D04B781BBB2B68B3F850205C
:1021E00092B21344621C02EB820215F8322003EB18
:1021F0000213B3F80424C2F30902A3F80424B3F8C9
:1022000004246FEA42426FEA524292B2A3F80424D5
:10221000013404EB840415F83410284603F07CFAEA
:10222000C9E5012BF4D12B68B3F8502092B21344C6
:10223000621C02EB820215F8322003EB021300222B
:10224000A3F80424E4E72A68631C03EB830305EB8B
:10225000C3035B78D3B9B2F850309BB21344621C0D
:1022600002EB820215F8322003EB0213B3F80C24C0
:10227000C2F30902A3F80C24B3F80C246FEA42421B
:102280006FEA524292B2A3F80C24C1E7012BBFD1EE
:10229000B2F850309BB21344621C02EB820215F874
:1022A000322003EB02130022A3F80C24B0E704EB66
:1022B000840205EBC20200271764B2E604EB840235
:1022C00005EBC202D66B1E44D663526C04EB840449
:1022D00005EBC4041344636401F0A7FC6BE53246CC
:1022E0002846FFF753FB66E50020BDE8F08190F833
:1022F000A832012B0DD010B50446012380F8A83276
:1023000080F82410006801F06DFC002084F8A80219
:1023100010BD0220704710B584B00446006801F07B
:102320006BFC10F4004F20D110F4806F21D110F419
:10233000804F2FD110F4005F37D110F4805F3ED171
:1023400010F4006F40F0878010F4007F40F0AE8002
:1023500010F4807F27D02268B2F844309BB223F477
:1023600080739BB2A2F844301DE02046FFF720FDA9
:1023700019E02268B2F844309BB223F480639BB228
:10238000A2F84430204603F0D8F900212046FFF798
:10239000AEFF08E02268B2F844309BB223F48043D9
:1023A0009BB2A2F8443004B010BD2268B2F84430A9
:1023B0009BB223F400539BB2A2F84430F3E72268A7
:1023C000B2F840309BB223F004039BB2A2F8403035
:1023D0002268B2F840309BB223F008039BB2A2F807
:1023E0004030204603F0CCF92268B2F844309BB26A
:1023F00023F480539BB2A2F84430D4E7226832F829
:10240000231004AA02EB430222F8101C0133DBB2B2
:10241000072BF3D92268B2F840309BB243F0010396
:10242000A2F840302268B2F840309BB223F001039A
:102430009BB2A2F840302368B3F8442012F4806FB6
:10244000F9D0B3F8442092B222F4806292B2A3F899
:10245000442000230BE00023DAE7226804A901EB03
:10246000430131F8101C22F823100133DBB2072B93
:10247000F3D92268B2F840309BB243F00803A2F8C7
:1024800040302268B2F844309BB223F400639BB220
:10249000A2F844302268B2F840309BB243F0040303
:1024A000A2F84030204603F05BF97CE72268B2F8DE
:1024B00044309BB223F400739BB2A2F84430204610
:1024C00003F035F96FE710B50446084611F0800FA8
:1024D00025D101F0070C0CEB8C01C90001F5B47E8D
:1024E00004EB0E010CEB8C0C04EBCC0C4FF0000E4B
:1024F0008CF869E100F0070008700A61CB70022BCC
:102500001AD094F8A832012B19D0012384F8A832EC
:10251000206801F00CF9002084F8A80210BD01F039
:10252000070C0CF1010C0CEB8C0104EBC1014FF01A
:10253000010E81F801E0DDE700230B71E1E70220E5
:10254000ECE710B501F0070C0CEB8C01C90001F5AC
:10255000B4710CEB8C0E00EBCE0ECEF87C21CEF8D5
:1025600080310024CEF884418EF869418EF868C12C
:102570000144006801F059FB204610BD38B501F058
:10258000070404F1010C0CEB8C0104EB840E00EB4E
:10259000CE0ECEF83C20CEF8403001228EF84C20F2
:1025A000CEF848300025CEF8445000EBC1035A70F5
:1025B00000F831401946006801F037FB284638BD65
:1025C00038B501F007054268954231D804460B46FC
:1025D00011F0800F1ED101EB8101C90001F5B4712A
:1025E000014403EB830300EBC303002283F869215A
:1025F00001238B700D7094F8A832012B1AD001239F
:1026000084F8A832206801F077FA5DB1002084F8E0
:10261000A80238BD6B1C03EB830100EBC101012252
:102620004A70E5E704F52C71206801F0E9FAEDE75E
:102630000120EEE70220ECE70B4601F00F014268B3
:10264000914230D810B5044613F0800F21D103F029
:10265000070202EB8201C90001F5B471014402EBEB
:10266000820200EBC202002082F8690100228A7017
:1026700003F007030B7094F8A832012B15D0012347
:1026800084F8A832206801F05CFA002084F8A802DF
:1026900010BD03F00702013202EB820100EBC10121
:1026A00001204870E2E7012070470220F0E711F0B6
:1026B000800F0BD001F00701013101EB810100EB2C
:1026C000C10052B90273C3800020704701EB810141
:1026D000C90001F5B4710844F3E7012202730381D4
:1026E0001B0C4381F0E7000082B0084B1B68084ACE
:1026F000A2FB03235B0A00FB03F3019300BF019BD2
:102700005A1E0192002BF9D102B070470000002040
:10271000D34D6210002800F0F18170B582B00446FC
:10272000036813F0010F2CD0994B5B6803F00C0386
:10273000042B1DD0964B5B6803F00C03082B12D0C2
:102740006368B3F5803F41D0002B55D103F180433E
:1027500003F504331A6822F480321A601A6822F4EE
:1027600080221A6037E08A4B5B6813F4803FE7D021
:10277000874B1B6813F4003F03D06368002B00F005
:10278000BF81236813F0020F75D0814B5B6813F093
:102790000C0F5FD07E4B5B6803F00C03082B54D00A
:1027A0002369002B00F08A807A4B01221A60FEF721
:1027B00049FC0546764B1B6813F0020F75D1FEF7F6
:1027C00041FC401B0228F5D903209EE1704A1368A2
:1027D00043F480331360636843B3FEF733FC05466C
:1027E0006B4B1B6813F4003FCBD1FEF72BFC401B57
:1027F0006428F5D9032088E1B3F5A02F09D0644BF4
:102800001A6822F480321A601A6822F480221A6050
:10281000E1E703F18043A3F53C331A6842F48022D8
:102820001A601A6842F480321A60D4E7FEF70AFC94
:102830000546574B1B6813F4003FA2D0FEF702FC7D
:10284000401B6428F5D903205FE1514B5B6813F40A
:10285000803FA5D14E4B1B6813F0020F03D02369B4
:10286000012B40F04F814A4A136823F0F803616955
:1028700043EAC1031360236813F0080F33D0A36940
:10288000002B5CD0434B0122C3F88024FEF7DAFB17
:1028900005463F4B5B6A13F0020F21D1FEF7D2FBD6
:1028A000401B0228F5D903202FE1394A136823F091
:1028B000F803616943EAC1031360DCE7354B00228A
:1028C0001A60FEF7BFFB0546314B1B6813F0020F81
:1028D000D1D0FEF7B7FB401B0228F5D9032014E145
:1028E0000120FFF701FF236813F0040F00F096802A
:1028F000274BDB6913F0805F34D1254BDA6942F056
:102900008052DA61DB6903F080530193019B01255A
:10291000214B1B6813F4807F26D0E368012B3DD048
:10292000002B53D103F1804303F504331A6A22F0DC
:1029300001021A621A6A22F004021A6233E0154B8D
:102940000022C3F88024FEF77DFB0546104B5B6A2E
:1029500013F0020FC7D0FEF775FB401B0228F5D914
:102960000320D2E00025D3E70B4A136843F48073B9
:102970001360FEF767FB0646074B1B6813F4807F66
:10298000CBD1FEF75FFB801B6428F5D90320BCE0A8
:102990000010024000004242007000405F4A136A8B
:1029A00043F001031362E36833B3FEF74BFB0646C3
:1029B0005A4B1B6A13F0020F2FD1FEF743FB801B0B
:1029C00041F288339842F3D903209EE0052B09D0C9
:1029D000524B1A6A22F001021A621A6A22F00402A9
:1029E0001A62E0E74D4B1A6A42F004021A621A6A50
:1029F00042F001021A62D6E7FEF724FB0646474B77
:102A00001B6A13F0020F08D0FEF71CFB801B41F27B
:102A100088339842F3D9032077E0E5B9E369002BC6
:102A200072D03E4A526802F00C02082A56D0022B9D
:102A300017D03B4B00221A66FEF704FB0446374BC7
:102A40001B6813F0007F47D0FEF7FCFA001B02283A
:102A5000F5D9032059E0314AD36923F08053D3617B
:102A6000DCE72F4B00221A66FEF7ECFA05462B4BEB
:102A70001B6813F0007F06D0FEF7E4FA401B022823
:102A8000F5D9032041E0236AB3F5803F1AD02349EA
:102A90004B6823F47413226A606A024313434B6049
:102AA0001F4B01221A66FEF7CDFA04461B4B1B682A
:102AB00013F0007F0ED1FEF7C5FA001B0228F5D9EE
:102AC000032022E0154A536823F40033A1680B4326
:102AD0005360DCE7002018E0002016E0012B16D040
:102AE0000E4B5B6803F48031226A914211D103F4EA
:102AF0007013626A93420ED1002006E001207047F5
:102B0000012002E0012000E0002002B070BD0120A1
:102B1000FBE70120F9E70120F7E700BF00100240C2
:102B2000000042420F4B5B6803F00C02082A01D000
:102B30000D487047C3F383420C49885C13F4803F0F
:102B40000BD0084B5B68C3F34043094AD35C064A89
:102B500002FB00F0B0FBF3F07047064B03FB00F004
:102B6000704700BF0010024000127A00F4BE000857
:102B7000F0BE000800093D00002800F0A08070B5FC
:102B80000D460446524B1B6803F007038B420BD2E1
:102B90004F4A136823F007030B431360136803F0D5
:102BA00007038B4240F08D80236813F0020F17D08B
:102BB00013F0040F04D0474A536843F4E0635360B2
:102BC000236813F0080F04D0424A536843F460535B
:102BD0005360404A536823F0F003A1680B435360ED
:102BE000236813F0010F31D06368012B20D0022B32
:102BF00025D0384A126812F0020F64D035494A686D
:102C000022F0030213434B60FEF71CFA0646314BD9
:102C10005B6803F00C036268B3EB820F16D0FEF71B
:102C200011FA801B41F288339842F0D9032045E025
:102C3000284A126812F4003FE0D101203EE0254A04
:102C4000126812F0007FD9D1012037E0204B1B68B9
:102C500003F00703AB420AD91D4A136823F00703A8
:102C60002B431360136803F00703AB422DD1236895
:102C700013F0040F06D0174A536823F4E063E168A9
:102C80000B435360236813F0080F07D0114A5368B1
:102C900023F46053216943EAC1035360FFF742FF05
:102CA0000C4B5B68C3F303130B4AD35CD8400B4B4C
:102CB00018600B4B1868FEF781F9002070BD0120E9
:102CC00070470120FAE70120F8E70120F6E700BF8E
:102CD0000020024000100240E0BE0008000000207A
:102CE00008000020014B1868704700BF000000205A
:102CF00008B5FFF7F7FF044B5B68C3F30223034AF1
:102D0000D35CD84008BD00BF00100240D8BE000808
:102D100008B5FFF7E7FF044B5B68C3F3C223034A20
:102D2000D35CD84008BD00BF00100240D8BE0008E8
:102D300070B582B00446036813F0010F36D03F4BE4
:102D4000DB6913F0805F49D13C4BDA6942F0805275
:102D5000DA61DB6903F080530193019B0125384B55
:102D60001B6813F4807F3BD0344B1B6A13F4407311
:102D700013D0626802F440729A420ED02F4A136A4E
:102D800023F440702F490126C1F840640026C1F8A1
:102D90004064106213F0010F36D1284A136A23F4FD
:102DA000407361680B431362002D3ED1236813F01A
:102DB000020F06D0214A536823F44043A1680B4315
:102DC0005360236813F0100F34D01C4A536823F467
:102DD0008003E1680B43536000202CE00025BEE730
:102DE000174A136843F480731360FEF72BF9064605
:102DF000134B1B6813F4807FB6D1FEF723F9801BB9
:102E00006428F5D9032016E0FEF71CF906460B4BA3
:102E10001B6A13F0020FC0D1FEF714F9801B41F2B8
:102E200088339842F3D9032005E0D36923F0805317
:102E3000D361BBE7002002B070BD00BF00100240AC
:102E40000070004000004242026802F10C0353E8A7
:102E5000003F23F0C0030C3242E800310029F3D1D7
:102E6000202380F841307047026802F10C0353E8D8
:102E7000003F23F490730C3242E800310029F3D173
:102E8000026802F1140353E8003F23F001031432F7
:102E900042E800310029F3D1036B012B05D0202338
:102EA00080F84230002303637047026802F10C038C
:102EB00053E8003F23F010030C3242E800310029B0
:102EC000F3D1ECE790F84130DBB2212B01D00220A6
:102ED00070478368B3F5805F17D0036A5A1C02629B
:102EE0001A7803685A60C38C9BB2013B9BB2C384BF
:102EF0004BB90268D36823F08003D3600268D368BB
:102F000043F04003D360002070470369002BE4D1F5
:102F1000036A1B880268C3F308035360036A023321
:102F20000362E0E710B504460268136923F44053D6
:102F3000C1680B43136183680269134342691A43F2
:102F40000168CB6823F4B05323F00C031343CB6028
:102F50000268536923F4407381690B43536102682B
:102F6000134B9A4220D0FFF7C3FE024602EB8202C7
:102F700002EB820263689B00B2FBF3F20D48A0FBF8
:102F800002314909642303FB11231B013233A0FBE7
:102F900003035B0903F0F00202EB011203F00F03DD
:102FA000216813448B6010BDFFF7B2FE0246DDE7D7
:102FB000003801401F85EB512DE9F84305460F46C7
:102FC00016469946DDF820802B681C6837EA040411
:102FD0000CBF01240024B4422DD1B8F1FF3FF3D03F
:102FE000B8F1000F05D0FEF72DF8A0EB0900404521
:102FF000EAD92A6802F10C0353E8003F23F4D073A6
:103000000C3242E800310029F3D12A6802F114039E
:1030100053E8003F23F00103143242E80031002955
:10302000F3D1202385F8413085F84230002385F81C
:103030004030032000E00020BDE8F88360B310B505
:10304000044690F8413013B3242384F841302268B9
:10305000D36823F40053D3602046FFF763FF226850
:10306000136923F4904313612268536923F02A0300
:1030700053612268D36843F40053D3600020606436
:10308000202384F8413084F84230606310BD80F81A
:103090004030FDF7F5FED7E7012070472DE9F041FC
:1030A00082B01E4690F84230DBB2202B53D104464A
:1030B0000D469046002952D00AB901204CE0002369
:1030C0004364222280F842200363FDF7BBFF0746DA
:1030D000A4F82C80A4F82E80A368B3F5805F02D0FA
:1030E0004FF0000817E0236913B14FF0000812E019
:1030F000A84600250FE023685B68C3F3080328F89F
:10310000023B03E023685B682B700135E28D92B2CD
:10311000013A92B2E285E38D9BB2BBB100963B4689
:10312000002220212046FFF747FFD0B9002DE2D032
:10313000A368B3F5805FE5D013B92369002BE1D014
:1031400023685B6803F07F032B70DEE7202384F89D
:103150004230002000E0022002B0BDE8F0810120F2
:10316000FAE70320F8E7000038B5134690F841204D
:10317000D2B2202A2FD1044600292ED00BB901202B
:1031800038BD01628384C38400224264212084F814
:103190004100A06B124D8562A06B124DC562A06B01
:1031A000114D0563A06B426322680432A06BFEF7E9
:1031B00027F823686FF040021A60226802F11403B6
:1031C00053E8003F43F08003143242E80031002905
:1031D000F3D10020D4E70220D2E70120D0E700BFDE
:1031E000EF3100085732000865320008704708B513
:1031F0000346406A1B681B6813F0200F1AD1002396
:10320000C384026802F1140353E8003F23F08003F3
:10321000143242E800310029F3D1026802F10C03B4
:1032200053E8003F43F040030C3242E800310029EC
:10323000F3D108BDFFF7DAFFFBE708B50168CA68FC
:1032400022F04002CA60202280F84120FFF7CEFF22
:10325000002008BD704708B5406AFFF7FBFF08BDB6
:103260007047704710B5446A23685A6994F8413032
:10327000DBB2212B10D023685A6902F0400294F887
:103280004230DBB2222B11D0636C43F01003636435
:103290002046FFF7E6FF10BD02F08002002AEAD0C8
:1032A0000023E3842046FFF7CFFDE4E7002AEBD0BC
:1032B0000023E3852046FFF7D7FDE5E708B5406A20
:1032C0000023C385C384FFF7CCFF08BD90F84230CC
:1032D000DBB2222B69D18368B3F5805F4FD0826A5D
:1032E000B3F5805F04D0002B56D10369002B53D176
:1032F00003685B681370836A01338362C38D9BB27A
:10330000013B9BB2C385002B51D100B583B002684D
:10331000D36823F02003D3600268D36823F480735A
:10332000D3600268536923F001035361202380F8BE
:10333000423000234363036B012B33D1002303632B
:10334000026802F10C0353E8003F23F010030C3233
:1033500042E800310029F3D103681A6812F0100F17
:1033600006D0002201921A6801925B680193019BCA
:10337000818D02F08DFB002003B05DF804FB026933
:10338000002AACD1826A03685B68C3F30803138028
:10339000836A02338362B1E703685B6803F07F03EB
:1033A0001370A8E7FFF75CFFE5E7022070470020F5
:1033B0007047000010B582B0044602681368D068F8
:1033C000516913F00F0F09D113F0200F0CD010F03A
:1033D000200F09D02046FFF779FF16E011F0010118
:1033E00015D110F4907F12D1216B012979D013F0FF
:1033F000800F03D010F0800F40F0138113F0400FC6
:1034000003D010F0400F40F0108102B010BD13F057
:10341000010F06D010F4807F03D0626C42F00102ED
:10342000626413F0040F04D019B1626C42F002021E
:10343000626413F0020F04D019B1626C42F004020E
:10344000626413F0080F07D010F0200F00D119B1FB
:10345000626C42F008026264626C002AD5D013F0FC
:10346000200F02D010F0200F29D123685B6903F0F0
:103470004003626C12F0080F00D163B32046FFF7DF
:10348000F3FC23685B6913F0400F20D0226802F13F
:10349000140353E8003F23F04003143242E80031A4
:1034A0000029F3D1E36B73B1624A5A63E06BFDF715
:1034B00005FF0028A9D0E06B436B9847A5E720469D
:1034C000FFF704FFD1E72046FFF7CBFE9DE720463C
:1034D000FFF7C7FE99E72046FFF7C3FE00236364AA
:1034E00093E713F0100F82D010F0100F3FF47FAF6E
:1034F000002301931368019353680193019B53695F
:1035000013F0400F51D0E26B13685B689BB2002B45
:103510003FF47BAFA18D99427FF677AFE385936946
:10352000202B37D0226802F10C0353E8003F23F42C
:1035300080730C3242E800310029F3D1226802F195
:10354000140353E8003F23F00103143242E8003132
:103550000029F3D1226802F1140353E8003F23F05D
:103560004003143242E800310029F3D1202384F8CB
:10357000423000232363226802F10C0353E8003F2A
:1035800023F010030C3242E800310029F3D1E06B44
:10359000FDF771FE02236363A18DE38D9BB2C91A0F
:1035A00089B2204602F074FA2FE7A18DE38D9BB219
:1035B000C91A89B2E38D9BB2002B3FF426AF0029D4
:1035C0003FF423AF226802F10C0353E8003F23F4D9
:1035D00090730C3242E800300028F3D1226802F1E7
:1035E000140353E8003F23F00103143242E8003093
:1035F0000028F3D1202384F842300023236322687B
:1036000002F10C0353E8003F23F010030C3242E8B0
:1036100000300028F3D102236363204602F038FA19
:10362000F3E62046FFF74EFCEFE62046FFF705FEE7
:10363000EBE600BFBD32000881628285C2850023AF
:103640004364222380F84230036923B10268D368BF
:1036500043F48073D3600268536943F001035361FC
:103660000268D36843F02003D3600020704790F8CD
:103670004230DBB2202B29D110B582B0044639B3D9
:1036800012B9012002B010BD01230363002343637C
:10369000FFF7D2FF0028F5D1236B012B01D00120C9
:1036A000F0E70023019323681A6801925B68019395
:1036B000019B226802F10C0353E8003F43F0100322
:1036C0000C3242E800310029F3D1DBE702207047D9
:1036D0000120D7E784B001A880E80E00002004B0E4
:1036E000704703460020A3F844004FF43F42A3F87C
:1036F00040207047B0F8403023F47C535B045B0CEF
:10370000A0F84030002070470020704784B0844605
:1037100001A880E80E000123ACF840300020ACF88E
:103720004000ACF84400ACF8500004B0704710B54D
:10373000034691F800C030F82C2092B222F4EC42FB
:1037400022F0700292B2C878032861D8DFE800F056
:10375000555C0258002048F2800E42EA0E0223F81F
:103760002C2091F800C033F82C2092B222F4E042D1
:1037700022F0700242EA0C0242EA0E0223F82C20E8
:103780000A7B002A40F0DC804A78002A51D0B3F846
:10379000502092B21A440C7802EB0412B1F806C021
:1037A0004FEA5C0C4FEA4C0CA2F800C40C7833F8DA
:1037B000242012F0400F0CD033F8242092B222F4CF
:1037C000E04222F0700242F4004242F0C00223F8CC
:1037D0002420CA78012A1DD0097833F8212092B21A
:1037E00022F4E04222F0400282F0200242F4004241
:1037F00042F0800223F8212017E142F40072AAE788
:1038000042F4C0620020A6E742F480620020A2E7F2
:103810000120A0E7097833F8212092B222F4E04297
:1038200022F0400242F4004242F0800223F82120BC
:10383000FBE0B3F8502092B21A440C7802EB041269
:10384000B1F806C04FEA5C0C4FEA4C0CA2F808C471
:10385000B3F8502092B21A440C7802EB0412B2F87A
:103860000CC4CCF3090CA2F80CC40C693E2C39D959
:103870004FEA541E14F01F0F01D10EF1FF3EB2F8B3
:103880000CC41FFA8CFC4FEA8E2E1FFA8EFE4CEAF7
:103890000E0C4CF4004CA2F80CC40C7833F8242025
:1038A00012F4804F0CD033F8242092B222F4E0427C
:1038B00022F0700242F4404242F0800223F82420B9
:1038C000097869BB33F8212092B222F4804222F0B9
:1038D000700282F4405242F4004242F0800223F827
:1038E0002120A2E04CB9B2F80C446FEA44446FEADC
:1038F0005444A4B2A2F80C44CFE74FEA540C14F09D
:10390000010F01D00CF1010CB2F80C44A4B24FEA43
:103910008C2C1FFA8CFC44EA0C04A2F80C44BCE783
:1039200033F8212092B222F4804222F0700282F415
:10393000005242F4004242F0800223F8212074E059
:10394000CA78022A72D00C7833F8242092B222F47A
:10395000E24222F0700242F4004242F0800223F878
:103960002420B3F8502092B21A4491F800C002EB20
:103970000C12B1F808C04FEA5C0C4FEA4C0CA2F8EC
:1039800000C4B3F8502092B21A4491F800C002EB80
:103990000C12B1F80AC04FEA5C0C4FEA4C0CA2F8CA
:1039A00008C44A78002A50D10C7833F8242012F445
:1039B000804F0CD033F8242092B222F4E04222F05F
:1039C000700242F4404242F0800223F824200C7836
:1039D00033F8242012F0400F0CD033F8242092B298
:1039E00022F4E04222F0700242F4004242F0C002AF
:1039F00023F8242091F800C033F82C2092B222F44E
:103A0000804222F0700282F4405248F28004224345
:103A100023F82C20097833F8212092B222F4E042D6
:103A200022F04002224323F8212010BD0C7833F805
:103A3000242092B222F4E04222F0700242F40142C9
:103A400042F0800223F824208BE70C7833F82420FE
:103A500012F4804F0CD033F8242092B222F4E042CA
:103A600022F0700242F4404242F0800223F8242007
:103A70000C7833F8242012F0400F0CD033F82420B7
:103A800092B222F4E04222F0700242F4004242F08C
:103A9000C00223F82420CA78012A1ED00C7833F8FB
:103AA000242092B222F4E04222F0400282F020026E
:103AB00042F4004242F0800223F82420097833F8CF
:103AC000212092B222F4804222F0700242F400429D
:103AD00042F0800223F82120A7E70C7833F8242055
:103AE00092B222F4E04222F0400242F4004242F05C
:103AF000800223F82420E1E74B788BB10A7830F874
:103B000022309BB223F4E04323F0400383F0100300
:103B100043F4004343F0800320F822300020704734
:103B20000A7830F822309BB223F4804323F07003EC
:103B300083F4805343F4004343F0800320F82230A1
:103B4000ECE70B7B002B4BD14B7833B30A7830F882
:103B5000223013F0400F0CD030F822309BB223F407
:103B6000E04323F0700343F4004343F0C00320F824
:103B70002230CB78012B33D00A7830F822309BB238
:103B800023F4E04323F0400383F0200343F4004395
:103B900043F0800320F8223022E00A7830F8223007
:103BA00013F4804F0CD030F822309BB223F4E04362
:103BB00023F0700343F4404343F0800320F82230A5
:103BC0000A7830F822309BB223F4804323F070034C
:103BD00083F4405343F4004343F0800320F8223041
:103BE0000020704711B98023A0F84C3000207047A6
:103BF0000020704700207047B0F8440080B2704742
:103C00000020704701335B0800EB420000F5806044
:103C100008E00A7891F801C042EA0C2220F8042B4F
:103C20000231013B002BF4D1704770B505460C46BC
:103C30004A78012A3BD00B7B002B40F0A6828B698F
:103C40000A69934240F284829B1A8B61B5F8503026
:103C50009BB22B44217803EB0113B3F80C14C1F38E
:103C60000901A3F80C143E2A40F27682510912F0A1
:103C70001F0F00D10139B3F80C2492B2890289B226
:103C80000A4342F40042A3F80C24227835F822308B
:103C90009BB223F4804323F0700383F4405343F436
:103CA000004343F0800325F82230002070BD8E6968
:103CB00009698E4200D90E46237B73B3E378022B49
:103CC0004DD0236A9B1B2362217835F8213013F0F5
:103CD000400F00F0F581002A40F0E281B5F8503045
:103CE0009BB22B4403EB0113B3F80C24C2F309027B
:103CF000A3F80C243E2E40F2BA81710916F01F0F72
:103D000000D10139B3F80C2492B2890289B20A4376
:103D100042F40042A3F80C24CBE1B6B23346E28869
:103D200061692846FFF76EFFB5F850309BB22B440F
:103D3000227803EB0213A3F80464227835F82230CA
:103D40009BB223F4E04323F0400383F0300343F4B9
:103D5000004343F0800325F822300020A6E7236AC1
:103D6000994280F06681227835F822309BB223F4A4
:103D7000E04323F0700343F4014343F0800325F84C
:103D80002230236A9B1B2362227835F8223013F0FD
:103D9000400F00F0A7806378B3BBB5F850309BB2FA
:103DA0002B4403EB0213B3F80C24C2F30902A3F86B
:103DB0000C243E2E0FD9710916F01F0F00D10139C6
:103DC000B3F80C2492B2890289B20A4342F4004249
:103DD000A3F80C241AE04EB9B3F80C246FEA42425F
:103DE0006FEA524292B2A3F80C240FE0720816F068
:103DF000010F00D00132B3F80C1489B2920292B2D2
:103E00000A43A3F80C2401E0012B30D0B3B262893D
:103E100061692846FFF7F6FE636933446361236AEC
:103E2000226993422DD99B1B23626378002B45D1D5
:103E3000B5F850309BB22B44227803EB0213B3F851
:103E40000424C2F30902A3F804243E2E1DD97109EB
:103E500016F01F0F00D10139B3F8042492B2890281
:103E600089B20A4342F40042A3F8042428E0B5F8DA
:103E700050309BB22B4403EB0213B2B2A3F80C24D4
:103E8000C4E7002222621E46CFE74EB9B3F80424ED
:103E90006FEA42426FEA524292B2A3F804240FE062
:103EA000720816F0010F00D00132B3F8041489B281
:103EB000920292B20A43A3F8042401E0012B06D037
:103EC000B3B2228961692846FFF79CFE35E7B5F851
:103ED00050309BB22B44227803EB0213B2B2A3F80A
:103EE0000424EDE76378B3BBB5F850309BB22B44A4
:103EF00003EB0213B3F80424C2F30902A3F8042469
:103F00003E2E0FD9710916F01F0F00D10139B3F8F9
:103F1000042492B2890289B20A4342F40042A3F80F
:103F200004241AE04EB9B3F804246FEA42426FEA5F
:103F3000524292B2A3F804240FE0720816F0010F67
:103F400000D00132B3F8041489B2920292B20A434B
:103F5000A3F8042401E0012B30D0B3B222896169B7
:103F60002846FFF74FFE636933446361236A226981
:103F700093422DD99B1B23626378002B45D1B5F862
:103F800050309BB22B44227803EB0213B3F80C247D
:103F9000C2F30902A3F80C243E2E1DD9710916F0B4
:103FA0001F0F00D10139B3F80C2492B2890289B2F3
:103FB0000A4342F40042A3F80C2428E0B5F850303C
:103FC0009BB22B4403EB0213B2B2A3F80424C4E760
:103FD000002222621E46CFE74EB9B3F80C246FEAE6
:103FE00042426FEA524292B2A3F80C240FE07208E8
:103FF00016F0010F00D00132B3F80C1489B292020E
:1040000092B20A43A3F80C2401E0012B06D0B3B20C
:10401000628961692846FFF7F5FD8EE6B5F85030F4
:104020009BB22B44227803EB0213B2B2A3F80C2408
:10403000EDE7217835F8212092B222F4E24222F015
:10404000700242F4004242F0800225F82120B5F8C7
:10405000502092B22A44217802EB01129BB2A2F8BE
:104060000434228961692846FFF7CCFD65E64EB924
:10407000B3F80C246FEA42426FEA524292B2A3F8BC
:104080000C2416E0720816F0010F00D00132B3F8CC
:104090000C1489B2920292B20A43A3F80C2408E0ED
:1040A000B5F850309BB22B4403EB0113B2B2A3F826
:1040B0000C24B3B2628961692846FFF7A3FD3CE690
:1040C000B2BBB5F850309BB22B4403EB0113B3F8ED
:1040D0000424C2F30902A3F804243E2E0FD9710967
:1040E00016F01F0F00D10139B3F8042492B28902EF
:1040F00089B20A4342F40042A3F8042421E04EB9F5
:10410000B3F804246FEA42426FEA524292B2A3F833
:10411000042416E0720816F0010F00D00132B3F843
:10412000041489B2920292B20A43A3F8042408E06C
:10413000B5F850309BB22B4403EB0113B2B2A3F895
:104140000424B3B2228961692846FFF75BFDF4E5D8
:1041500000228A611A4679E54AB9B3F80C246FEA5D
:1041600042426FEA524292B2A3F80C248DE5510804
:1041700012F0010F00D00131B3F80C2492B2890281
:1041800089B20A43A3F80C247FE5CB78022B4DD0EB
:10419000012B40F02F8189692369994240F2E68022
:1041A000C91AA161F2B9B5F8502092B22A44217817
:1041B00002EB0112B2F80414C1F30901A2F80414CD
:1041C0003E2B40F2D780580913F01F0F00D1013861
:1041D000B2F8041489B2800280B2014341F4004174
:1041E000A2F804146278002A40F0F680B5F8502056
:1041F00092B22A44217802EB0112B2F80C14C1F3F6
:104200000901A2F80C143E2B40F2CD80590913F09D
:104210001F0F00D10139B2F80C349BB2890289B268
:104220000B4343F40043A2F80C342EE5F2B9B0F886
:1042300050309BB203440A7803EB0213B3F8042412
:10424000C2F30902A3F804240A693E2A31D95109AC
:1042500012F01F0F00D10139B3F8042492B2890281
:1042600089B20A4342F40042A3F804246378002B85
:1042700051D1B5F850309BB22B44227803EB021396
:10428000B3F80C24C2F30902A3F80C2422693E2AD5
:1042900028D9510912F01F0F00D10139B3F80C24AD
:1042A00092B2890289B20A4342F40042A3F80C2474
:1042B00033E04AB9B3F804246FEA42426FEA52424B
:1042C00092B2A3F80424D1E7510812F0010F00D0F4
:1042D0000131B3F8042490B28A0292B20243A3F8E7
:1042E0000424C3E74AB9B3F80C246FEA42426FEAE8
:1042F000524292B2A3F80C240FE0510812F0010FC1
:1043000000D00131B3F80C2490B28A0292B2024379
:10431000A3F80C2401E0012B1DD0E369002B3FF42E
:10432000B4AC227835F8221044F2400303EA0100CD
:104330008B4302D000287FF4A8AC35F822309BB222
:1043400023F4E04323F0700343F4004343F0C0033D
:1043500025F8223099E4B5F850309BB22B442278EE
:1043600003EB0213228AA3F80C24D6E70023A361EF
:104370000B4617E74BB9B2F804146FEA41416FEAF4
:10438000514189B2A2F804142CE7590813F0010F27
:1043900000D00131B2F8040480B2890289B201432D
:1043A000A2F804141EE74BB9B2F80C346FEA434389
:1043B0006FEA53439BB2A2F80C3466E4590813F039
:1043C000010F00D00131B2F80C3498B28B029BB2CD
:1043D0000343A2F80C3458E4012A7FF456ACB5F834
:1043E000502092B22A44217802EB01129BB2A2F82B
:1043F0000C344AE4012059E410B45C0800EB42009C
:1044000000F5806007E030F8042B0A70C2F3072241
:104410004A700231013C002CF5D113F0010F01D09C
:1044200003880B7010BC7047BFF34F8F0549CA68F3
:1044300002F4E062044B1343CB60BFF34F8F00BF25
:10444000FDE700BF00ED00E00400FA051B23038038
:104450000048704718000020002070470020704777
:1044600000207047002070470020704700207047F0
:104470000A230380004870470C000020D0F8B832AF
:1044800093F818240A2A11D00A2183F818140E224E
:1044900083F81024002283F8112483F8122483F86F
:1044A000132483F8141483F815247047022183F829
:1044B0001814002283F8102483F8112483F812249E
:1044C00083F8132483F8141483F815247047D0F864
:1044D000B83293F818148A1ED2B2012A05D90529D8
:1044E00003D0062901D0092913D1022183F8181419
:1044F000002283F8102483F8112483F8122483F80F
:10450000132483F8141483F81524C3F80024C3F883
:1045100004247047062909D810B5D0F8BC32044CE1
:104520002146186800F07DFF204610BD002070472E
:10453000AC080020D0F8B832002283F81924144ABD
:10454000127D12F0040F0CD0062183F818140022FB
:1045500083F8112483F8122483F8132483F81414A5
:10456000704710B50446082183F81814002283F818
:10457000112483F8122483F8132483F8141400F010
:10458000EAFAD4F8BC329B689847FFF74DFF00BFAA
:104590001800002010B582B0D0F8B84294F8183452
:1045A000042B04D0072B75D0002002B010BDD4F826
:1045B000001400295CD123781BB9D4F80424012A03
:1045C00045D0212B1FD0412B34D1D4F80434052BF6
:1045D00030D16378C4F80834A27803EB0223C4F81E
:1045E0000834E27803EB0243C4F80834227903EB81
:1045F0000263C4F80834D0F8BC22D2681846904749
:1046000028B30220D1E7D4F80424052ADBD163784B
:10461000C4F80834A27803EB0223C4F80834E27823
:1046200003EB0243C4F80834227903EB0263C4F8B5
:1046300008340CE00023C4F80434C4F800348DF8C6
:1046400000300123ADF80630694600F0F3FB00208E
:10465000C4F80404C4F80004032384F8183484F86C
:10466000110484F8120484F8130484F814349CE7C9
:104670000129ECD90239D0F8BC321B69D4F80424E2
:10468000D4F8080400EB8121204698470028DED0AA
:1046900002208AE7FFF74EFF002086E738B5D0F802
:1046A000B842CB88002B5FD0054694F81834022B13
:1046B00001D0092B50D14888C4F80004CA88C4F836
:1046C0000424D0B9032A16D9022284F8182400231E
:1046D00084F8113484F8123484F8133484F81424E0
:1046E0002370212363704123A370032221462846AF
:1046F00000F0B4FE44E00922E7E701281CD90921B3
:1047000084F81814002384F8113484F8123484F8DF
:10471000133484F814140238D5F8BC325B6921468E
:10472000D4F808C40CEB802098470146B4F8042460
:10473000284600F093FE23E00F2284F8182400237B
:1047400084F8113484F8123484F8133484F814246F
:10475000284600F06FFB13E00023C4F80434C4F8CB
:10476000003400F067FB0BE0022284F818240023D9
:1047700084F8113484F8123484F8133484F814243F
:1047800038BD000038B50546D0F8B84294F8183462
:10479000032B08D0062B3CD0062204F58261284664
:1047A00000F05CFE38BDD4F804342BB3042284F846
:1047B0001824002384F8113484F8123484F8133454
:1047C00084F81424D4F8003413B92378412B09D089
:1047D000D5F8BC329B6904F582620121D4F8080443
:1047E0009847D9E7D0F8BC329B6904F58262002172
:1047F000D4F808049847CFE7052284F8182400234A
:1048000084F8113484F8123484F8133484F81424AE
:10481000C2E794F81934012B13D0002BBCD1104BF4
:104820001B7D13F0040FB7D0022284F81824002354
:1048300084F8113484F8123484F8133484F814247E
:10484000AAE7072384F81834012284F811240022EF
:1048500084F8122484F8132484F814349CE700BFED
:104860001800002008B5D0F8B812012201F58361C4
:1048700000F0F4FD08BD08B5D0F8B832CA88BAB166
:1048800093F81824022A01D0052A0ED14A88C3F8C9
:104890000024CA88C3F80424032183F8181483F879
:1048A0001414194600F0EFFD17E000F0C3FA14E00D
:1048B00093F81824052A01D0022A0FD1012283F887
:1048C0001924062183F81814002283F8112483F890
:1048D000122483F8132483F8141408BD00F0AAFAF4
:1048E000FBE7000010B50446D0F8B83293F818047E
:1048F000821ED2B2012A05D9052803D0062801D08C
:10490000092813D1022083F81804002283F8102408
:1049100083F8112483F8122483F8132483F81404F1
:1049200083F81524C3F80024C3F80424074B5B7DE7
:1049300013F0100F06D0204600F00DF9204600F0CD
:1049400005F910BD4888FCF783FBFAE71800002042
:1049500030B583B00023ADF80630D0F8B8320C780B
:1049600014F0600429D0202C73D14C78062C20D868
:10497000DFE804F01C04080C10141800FFF77BFF9C
:10498000002469E0FFF78AFE002465E0FFF7FAFEE5
:10499000002461E0FFF772FD00245DE0FFF762FF95
:1049A000002459E0FFF793FD002455E0FFF79AFF3C
:1049B00052E000F03FFA02244EE04D780B2D44D82F
:1049C000DFE805F0064343434343154343432432A2
:1049D00090F89C32032B03D000F02CFA02243BE029
:1049E00002220DF1060100F039FD2C4634E04B881F
:1049F0001B0A212B04D00022114600F02FFD2BE0D2
:104A0000CA88092A28BF09221549F6E790F89C228E
:104A1000032A03D000F00EFA02241DE0012203F263
:104A20000C4100F01BFD17E08C7854B990F89C22E3
:104A3000032A02D1C3F80C440EE000F0FBF9022473
:104A40000AE000F0F7F9022406E000F0F3F902248E
:104A500002E000F0EFF90224204603B030BD00BFB1
:104A60002A000020D0F8B8320022C3F80024C3F88E
:104A70000424022183F8181483F8102483F81414F2
:104A8000D0F8B83273B110B50446D0F8BC329B6888
:104A90009847D4F8B80200F003FF0023C4F8B832F6
:104AA000002010BD0020704710B5044640F21C40A5
:104AB00000F0F2FEC4F8B80208B30023C0F80C34CA
:104AC0004FF00062C0F80824C0F80034C0F8043485
:104AD00080F81934022280F8182480F8103480F805
:104AE000113480F8123480F8133480F8142480F8DC
:104AF0001534D4F8BC325B68984710B910BD022059
:104B0000FCE70220FAE709B1C0F8BC1200207047A8
:104B100098B108B50346D0F8B40210B10020C3F82C
:104B2000B40209B1C3F8B012012183F89C121A70C3
:104B3000184600F02BFE002008BD0220704719B176
:104B4000C0F8B412002070470220704708B500F08A
:104B500049FE002008BD10B50446D0F8B4325B68A9
:104B600001799847204600F045FE002010BD08B5A9
:104B7000D0F8B4322BB11B68984700B908BD0220A9
:104B8000FCE70220FAE708B5D0F8B4325B68984732
:104B9000002008BD38B5044600F52A75284600F007
:104BA00035F90123C4F89432B4F8AE32C4F898321F
:104BB00094F8A81201F01F03012B0ED0022B11D084
:104BC0002BB101F08001204600F027FE03E02946CA
:104BD000204600F0D1FA002038BD2946204600F0DA
:104BE000FFFAF8E72946204600F02AFBF3E738B53C
:104BF00004460D4691BB1346D0F89422032A03D0F5
:104C0000052A24D0084633E0D0F86011D0F864219A
:104C100091420DD9891AC0F860118A4206D98AB228
:104C20001946204600F03EFC284621E092B2F7E704
:104C3000D0F8B4321B691BB190F89C22032A04D02F
:104C4000204600F037FC284612E09847F8E700219C
:104C5000C0F8941200F0E1FD284609E0D0F8B43223
:104C60009B6933B190F89C22032A04D19847002015
:104C700038BD0220FCE70220FAE738B504460D46AD
:104C8000002953D11346D0F89422022A0CD0042ACA
:104C900000D01AB98021204600F0BFFD94F8A03260
:104CA000012B3ED0284638BD026A416A8A421BD891
:104CB000C269B2FBF1F301FB13232BB9914203D874
:104CC000D0F898329A421CD3D4F8B432DB681BB1C6
:104CD00094F89C22032A21D08021204600F09DFDDB
:104CE000204600F0F2FBD9E7521A026292B219464E
:104CF00000F0C1FB00231A461946204600F0C4FD0F
:104D0000CCE70022114600F0B6FB0021C4F898124F
:104D10000B460A46204600F0B7FDBFE720469847FD
:104D2000DAE7002384F8A0322846BCE7D0F8B43292
:104D30005B6933B190F89C22032A04D19847002084
:104D4000B1E70220AFE70220ADE770B5044640238B
:104D50000022114600F056FD0125C4F858514026A6
:104D6000C4F86461334600228021204600F04AFDE9
:104D7000A561666284F89C520023C4F89432636093
:104D8000C4F8A432D4F8B8322BB1D4F8B4325B688A
:104D9000002120469847002070BD01740020704714
:104DA00090F89C3280F89D32042380F89C320020D9
:104DB000704790F89C32042B01D00020704790F887
:104DC0009D3280F89C32F8E708B590F89C32032BAE
:104DD00001D0002008BDD0F8B432DB69002BF8D038
:104DE0009847F6E70346002002E00130C0B20133E5
:104DF0001A78002AF9D1704708B54B88012B00D0EA
:104E000008BDC0F8A43200F055FBF9E70B78037039
:104E10004B7843708B78CA7803EB022343800B797D
:104E20004A7903EB022383808B79CA7903EB02234F
:104E3000C380704710B50446802100F0EEFC0021CD
:104E4000204600F0EAFC10BD30B583B005460C46A4
:104E50000023ADF8063049880B0A013B062B00F20F
:104E6000AC80DFE803F004182CAAAA8E9B00D0F8CF
:104E7000B0321B680DF10601007C9847BDF8062092
:104E80001AB1E388002B40F09C80E388002B00F0EF
:104E9000A28003B030BD037C43B9D0F8B4329B6A22
:104EA0000DF10600984702234370E7E7D0F8B432CB
:104EB000DB6A0DF10600984702234370DEE7C9B2B2
:104EC000052952D8DFE801F003101D2A3744D0F835
:104ED000B0325B6823B10DF10601007C9847CDE745
:104EE0002146FFF7A7FFD4E7D0F8B0329B6823B183
:104EF0000DF10601007C9847C0E72146FFF79AFFB5
:104F0000C7E7D0F8B032DB6823B10DF10601007CB1
:104F10009847B3E72146FFF78DFFBAE7D0F8B032E4
:104F20001B6923B10DF10601007C9847A6E72146D5
:104F3000FFF780FFADE7D0F8B0325B6923B10DF128
:104F40000601007C984799E72146FFF773FFA0E729
:104F5000D0F8B0329B6923B10DF10601007C98476F
:104F60008CE72146FFF766FF93E7D0F8B4329B6BDE
:104F70001BB10DF10602984780E72146FFF75AFF63
:104F800087E7037C33B9D0F8B4325B6B0DF10600D0
:104F9000984773E72146FFF74DFF7AE7037C43B953
:104FA000D0F8B4321B6B0DF106009847072343700D
:104FB00064E72146FFF73EFF6BE72146FFF73AFF24
:104FC00067E79A4228BF1A46ADF8062001462846F0
:104FD00000F044FA59E7284600F06CFA59E738B572
:104FE00004468B88F3B9CB88E3B94B887F2B19D85B
:104FF00003F07F0590F89C32032B0CD080F89E5272
:10500000294600F031FC204600F054FA35B1022365
:1050100084F89C3209E0FFF70DFF06E0012384F8D5
:105020009C3202E02046FFF705FF38BD38B5044644
:105030000D468978284B197001290ED890F89C32BA
:10504000022B0ED0032B21D02946FFF7F3FE224B73
:1050500019782046FFF797FD02E02946FFF7EAFEA0
:1050600038BD81B14160032380F89C32FFF77FFD9A
:10507000022803D0204600F01DFAF1E72946204619
:10508000FFF7D8FEECE700F015FAE9E789B14368CD
:1050900099421DD0D9B2FFF776FD0F4B19786160A8
:1050A0002046FFF764FD02280DD0204600F002FAEA
:1050B000D6E7022380F89C324160FFF764FD20466A
:1050C00000F0F8F9CCE729462046FFF7B3FEC7E722
:1050D00000F0F0F9C4E700BFAB09002008B5CB88A9
:1050E000012B0AD190F89C32022B09D9032B09D14C
:1050F0000122011D00F0B2F901E0FFF79BFE08BD9F
:105100005BB213B9FFF796FEF9E70146002341F8B9
:10511000083F012200F0A2F9F1E708B590F89C32AF
:10512000013B022B12D8CB88022B0CD10123C36088
:10513000D0F8A4320BB10323C360022200F10C01AA
:1051400000F08CF908BDFFF775FEFBE7FFF772FE74
:10515000F8E708B590F89C32013B022B09D84B8840
:10516000012B00D008BD0023C0F8A43200F0A2F942
:10517000F8E7FFF75FFEF5E708B50B7803F060038B
:10518000202B05D0402B03D043B1FFF753FE03E0A3
:10519000D0F8B4329B689847002008BD4B78092BA3
:1051A0001BD8DFE803F011171A141A08051A0E0BA2
:1051B000FFF74AFEF0E7FFF712FFEDE7FFF736FFD4
:1051C000EAE7FFF78BFFE7E7FFF7A7FFE4E7FFF763
:1051D00013FEE1E7FFF7BDFFDEE7FFF72BFEDBE79E
:1051E00038B505460C460B7803F06003202B06D03B
:1051F000402B04D01BB1FFF71DFE002038BD95F8F1
:105200009C32013B022B16D82379012B0ED8D5F8FE
:10521000B4329B68214628469847E388002BECD19E
:105220000028EAD1284600F045F9E6E7214628465D
:10523000FFF700FEE1E721462846FFF7FBFDDCE72C
:1052400070B505468B880C7804F06004202C07D0DC
:10525000DAB2402C04D05CB1FFF7ECFD002405E08D
:10526000D5F8B4329B68284698470024204670BD84
:10527000202C09D04E78012E33D0032E0AD0002ED8
:1052800055D0FFF7D7FDF1E7D0F8B4329B689847C7
:105290000446EBE790F89C32022B04D0032B11D08C
:1052A000FFF7C8FDE2E70AB1802A03D12846FFF7DD
:1052B000C1FDDBE7114600F0B0FA8021284600F07E
:1052C000ACFAD3E74B8823B91AB1802A01D0CB8836
:1052D0001BB1284600F0EEF8C8E7114600F09DFA31
:1052E000F7E790F89C32022B04D0032B11D0FFF784
:1052F000A1FDBBE70AB1802A03D12846FFF79AFD3A
:10530000B4E7114600F089FA8021284600F085FABA
:10531000ACE74B88002BA9D112F07F0F03D12846B0
:1053200000F0C8F8A2E7114600F07FFAF7E790F81E
:105330009C02022806D0032829D02846FFF77AFDD0
:10534000344693E70AB1802A13D113F0800F15D1A8
:1053500002F07F0202EB8202910001F5A87129445C
:10536000043100230B600222284600F077F834460F
:105370007CE72846FFF75EFD344677E702F07F02C0
:1053800002EB82029100103129440431E9E75BB25B
:10539000002B1FDB02F00F0000EB800005EB80000C
:1053A000D0F8580120B3002B27DB02F07F0303EB7A
:1053B00083039C0004F5A8742C4404340AB1802AA9
:1053C00024D10023236002222146284600F046F81B
:1053D00034464BE702F00F0000EB800005EB800045
:1053E00080690028DFD12846FFF724FD34463DE7D9
:1053F0002846FFF71FFD344638E702F07F0303EB32
:1054000083039C0010342C440434D7E7114628460B
:1054100000F013FA10B101232360D4E700232360C6
:10542000D1E7D0B170B50D4616460446FFF7DAFC59
:10543000431C5B009BB233802B7003236B700223F1
:1054400007E001345A1CD2B2E8540233DBB2002127
:10545000A95420780028F4D170BD704708B51346D0
:105460000222C0F89422C36103620A46002100F0C0
:1054700003FA002008BD08B513460A46002100F0D3
:10548000FBF9002008BD08B513460322C0F894229A
:10549000C0F85C31C0F860310A46002100F0F4F930
:1054A000002008BD08B513460A46002100F0ECF9BB
:1054B000002008BD08B50423C0F8943200231A4622
:1054C000194600F0D9F9002008BD08B50523C0F839
:1054D000943200231A46194600F0D6F9002008BD80
:1054E00008B500220F491048FFF712FB70B90F49A9
:1054F0000D48FFF724FB60B90D490B48FFF703FB8C
:1055000050B90948FFF722FB48B908BDFBF794FBE7
:10551000EDE7FBF791FBEFE7FBF78EFBF1E7FBF71E
:105520008BFBF2E7A4000020AC090020340000202F
:10553000C000002012230B8000487047900000201C
:1055400004230B80004870478C0000200023934206
:105550001ED200B510E00CF1370C01F813C00001A9
:105560004FEA430C0CF1010C4FF0000E01F80CE077
:105570000133DBB2934209D24FEA107CB0F1204FE5
:10558000E9D20CF1300C01F813C0E8E75DF804FB38
:105590007047000038B50B4BD3F8E807D3F8EC4759
:1055A000D3F8F037C01800D138BD074D082229467E
:1055B000FFF7CCFF042205F110012046FFF7C6FFDC
:1055C000F2E700BF00F0FF1F7200002008B51A23A9
:1055D0000B80FFF7DFFF014808BD00BF700000200F
:1055E00008B50A4628B905490548FFF71AFF0348D8
:1055F00008BD02490248FFF714FFF8E7700C0020CD
:1056000004BF000810B50A46034C21460348FFF7C3
:1056100008FF204610BD00BF700C002024BF00080A
:1056200008B50A4628B905490548FFF7FAFE0348B8
:1056300008BD02490248FFF7F4FEF8E7700C0020AD
:1056400038BF000808B50A4628B905490548FFF7DC
:10565000E8FE034808BD02490248FFF7E2FEF8E70A
:10566000700C002044BF00080020704700207047E5
:10567000002070470020704708B5FBF727FF002087
:1056800008BD08B5FBF708FF002008BD022805D8B3
:10569000DFE800F005040200012070470220704797
:1056A0000268124B9A4200D0704700B583B003F5F0
:1056B000DA33DA6942F40002DA61DB6903F40003E9
:1056C0000193019B002211461320FBF71BFD1320C1
:1056D000FBF728FD002211461420FBF713FD1420D0
:1056E000FBF720FD03B05DF804FB00BF005C004049
:1056F00008B500F52C71D0F8EC02FFF74BFA08BDA5
:1057000008B501EB810300EBC303D3F87C21D0F88B
:10571000EC02FFF76CFA08BD08B501EB810300EB62
:10572000C303DA6BD0F8EC02FFF7A7FA08BD08B59F
:10573000D0F8EC02FFF748FB08BD10B504468368BB
:10574000022B09D10121D4F8EC02FFF726FBD4F893
:10575000EC02FFF7FAFA10BDFBF76EFAF2E7000071
:1057600010B50446D0F8EC02FFF71AFBA36923B189
:10577000024A136943F00603136110BD00ED00E017
:1057800008B5D0F8EC02FFF714FB08BD10B50446CD
:105790001248C0F8EC42C4F8C002114B0360082361
:1057A00043600223836000238361C3610362FCF7CB
:1057B00033F878B9182300221146D4F8C002FCF758
:1057C00076FF582300228021D4F8C002FCF76FFF37
:1057D000002010BDFBF730FAECE700BF901200206C
:1057E000005C004008B5D0F8C002FCF79DF8FFF758
:1057F0004DFF08BD08B5D0F8C002FCF7AEF8FFF7C2
:1058000045FF08BD08B594461A466346D0F8C00265
:10581000FCF759FEFFF73AFF08BD08B5D0F8C00203
:10582000FCF7CEFEFFF732FF08BD08B5D0F8C00286
:10583000FCF702FFFFF72AFF08BDD0F8C03211F0D5
:10584000800F08D101F07F0101EB810103EBC1035F
:1058500093F86A01704701F07F01013101EB81018A
:1058600003EBC1039878704708B5D0F8C002FCF785
:105870003EFDFFF70BFF08BD08B5D0F8C002FCF7EE
:105880007DFEFFF703FF08BD08B5D0F8C002FCF7A6
:1058900058FEFFF7FBFE08BD00487047700E002061
:1058A0007047704770B58468A4460C4D04F14006FB
:1058B000AE46DCF80000DCF80410DCF80820DCF868
:1058C0000C30AEE80F000CF1100C7546B445EFD16A
:1058D00022460349034800F08BF870BD8015002074
:1058E000ECBF0008B4BF000800B583B00F4C4022E5
:1058F0001146204600F026F80D49204600F074F8C5
:10590000204600F045F80C220A49204600F036F8FF
:10591000094B93E8030002AB03E90300C820FBF73F
:1059200097FB0649064800F063F8F7E7DC00002023
:10593000A5580008C8BF0008D0BE0008E4BF000892
:10594000D0BF000870B504460D461646836903B102
:10595000984701236370E3700023A370236263629E
:10596000E580A6802DB92A460021A06800F0D2FC6F
:1059700070BD284600F094F8A060F4E708B5C3684D
:105980000BB1984708BD436A002BFBD09847F9E755
:1059900038B50446828842B1C3785BB1012B04D18B
:1059A000436913B18168984718B9636A0BB12046FF
:1059B000984738BD0569002DF7D00A238168A847AC
:1059C000F2E710B5044601238370036A03B19847D8
:1059D000A2880021A06800F09DFC637803B910BD87
:1059E0002046FFF7D5FFFAE701B1016270470000DA
:1059F0000FB430B5A3B026AC54F8045B802200216C
:105A000001A800F087FC009423462A46812101A8C2
:105A100000F04AFC01A800F077FD82B201A9044819
:105A2000FFF7ACFF23B0BDE8304004B0704700BFC3
:105A3000DC00002008B50348FDF719FEB0FA80F03D
:105A4000400908BD6008002008B50348FDF726FBA3
:105A5000B0FA80F0400908BD6008002010B5144677
:105A60000948FAF755FB02E00120FBF7F1FA074B72
:105A700093F84130DBB2202BF6D12246024903488D
:105A8000FDF772FB10BD00BFC015002060080020AC
:105A900008B50248FFF795FF08BD00BFDC000020F5
:105AA000024B0146186800F003B800BF240500202F
:105AB0002DE9F04F01F10B05162D064683B024D8D1
:105AC000102900F2AA8000F0ABFA102518234FF03D
:105AD000020CB74F3B445C68A3F10802944200F00B
